{
  "_format": "hh-sol-artifact-1",
  "contractName": "Token",
  "sourceName": "contracts/Token.sol",
  "abi": [
    {
      "inputs": [
        {
          "internalType": "string",
          "name": "name_",
          "type": "string"
        },
        {
          "internalType": "string",
          "name": "symbol_",
          "type": "string"
        }
      ],
      "stateMutability": "nonpayable",
      "type": "constructor"
    },
    {
      "inputs": [
        {
          "internalType": "address",
          "name": "sender",
          "type": "address"
        },
        {
          "internalType": "uint256",
          "name": "tokenId",
          "type": "uint256"
        },
        {
          "internalType": "address",
          "name": "owner",
          "type": "address"
        }
      ],
      "name": "ERC721IncorrectOwner",
      "type": "error"
    },
    {
      "inputs": [
        {
          "internalType": "address",
          "name": "operator",
          "type": "address"
        },
        {
          "internalType": "uint256",
          "name": "tokenId",
          "type": "uint256"
        }
      ],
      "name": "ERC721InsufficientApproval",
      "type": "error"
    },
    {
      "inputs": [
        {
          "internalType": "address",
          "name": "approver",
          "type": "address"
        }
      ],
      "name": "ERC721InvalidApprover",
      "type": "error"
    },
    {
      "inputs": [
        {
          "internalType": "address",
          "name": "operator",
          "type": "address"
        }
      ],
      "name": "ERC721InvalidOperator",
      "type": "error"
    },
    {
      "inputs": [
        {
          "internalType": "address",
          "name": "owner",
          "type": "address"
        }
      ],
      "name": "ERC721InvalidOwner",
      "type": "error"
    },
    {
      "inputs": [
        {
          "internalType": "address",
          "name": "receiver",
          "type": "address"
        }
      ],
      "name": "ERC721InvalidReceiver",
      "type": "error"
    },
    {
      "inputs": [
        {
          "internalType": "address",
          "name": "sender",
          "type": "address"
        }
      ],
      "name": "ERC721InvalidSender",
      "type": "error"
    },
    {
      "inputs": [
        {
          "internalType": "uint256",
          "name": "tokenId",
          "type": "uint256"
        }
      ],
      "name": "ERC721NonexistentToken",
      "type": "error"
    },
    {
      "inputs": [],
      "name": "InvalidInitialization",
      "type": "error"
    },
    {
      "inputs": [],
      "name": "NotInitializing",
      "type": "error"
    },
    {
      "anonymous": false,
      "inputs": [
        {
          "indexed": true,
          "internalType": "address",
          "name": "owner",
          "type": "address"
        },
        {
          "indexed": true,
          "internalType": "address",
          "name": "approved",
          "type": "address"
        },
        {
          "indexed": true,
          "internalType": "uint256",
          "name": "tokenId",
          "type": "uint256"
        }
      ],
      "name": "Approval",
      "type": "event"
    },
    {
      "anonymous": false,
      "inputs": [
        {
          "indexed": true,
          "internalType": "address",
          "name": "owner",
          "type": "address"
        },
        {
          "indexed": true,
          "internalType": "address",
          "name": "operator",
          "type": "address"
        },
        {
          "indexed": false,
          "internalType": "bool",
          "name": "approved",
          "type": "bool"
        }
      ],
      "name": "ApprovalForAll",
      "type": "event"
    },
    {
      "anonymous": false,
      "inputs": [
        {
          "indexed": false,
          "internalType": "uint256",
          "name": "_fromTokenId",
          "type": "uint256"
        },
        {
          "indexed": false,
          "internalType": "uint256",
          "name": "_toTokenId",
          "type": "uint256"
        }
      ],
      "name": "BatchMetadataUpdate",
      "type": "event"
    },
    {
      "anonymous": false,
      "inputs": [
        {
          "indexed": false,
          "internalType": "uint64",
          "name": "version",
          "type": "uint64"
        }
      ],
      "name": "Initialized",
      "type": "event"
    },
    {
      "anonymous": false,
      "inputs": [
        {
          "indexed": false,
          "internalType": "uint256",
          "name": "_tokenId",
          "type": "uint256"
        }
      ],
      "name": "MetadataUpdate",
      "type": "event"
    },
    {
      "anonymous": false,
      "inputs": [
        {
          "indexed": true,
          "internalType": "address",
          "name": "from",
          "type": "address"
        },
        {
          "indexed": true,
          "internalType": "address",
          "name": "to",
          "type": "address"
        },
        {
          "indexed": true,
          "internalType": "uint256",
          "name": "tokenId",
          "type": "uint256"
        }
      ],
      "name": "Transfer",
      "type": "event"
    },
    {
      "inputs": [
        {
          "internalType": "address",
          "name": "to",
          "type": "address"
        },
        {
          "internalType": "uint256",
          "name": "tokenId",
          "type": "uint256"
        }
      ],
      "name": "approve",
      "outputs": [],
      "stateMutability": "nonpayable",
      "type": "function"
    },
    {
      "inputs": [
        {
          "internalType": "address",
          "name": "owner",
          "type": "address"
        }
      ],
      "name": "balanceOf",
      "outputs": [
        {
          "internalType": "uint256",
          "name": "",
          "type": "uint256"
        }
      ],
      "stateMutability": "view",
      "type": "function"
    },
    {
      "inputs": [
        {
          "internalType": "uint256",
          "name": "tokenId",
          "type": "uint256"
        }
      ],
      "name": "getApproved",
      "outputs": [
        {
          "internalType": "address",
          "name": "",
          "type": "address"
        }
      ],
      "stateMutability": "view",
      "type": "function"
    },
    {
      "inputs": [
        {
          "internalType": "string",
          "name": "__name",
          "type": "string"
        },
        {
          "internalType": "string",
          "name": "__symbol",
          "type": "string"
        }
      ],
      "name": "init",
      "outputs": [],
      "stateMutability": "nonpayable",
      "type": "function"
    },
    {
      "inputs": [
        {
          "internalType": "address",
          "name": "owner",
          "type": "address"
        },
        {
          "internalType": "address",
          "name": "operator",
          "type": "address"
        }
      ],
      "name": "isApprovedForAll",
      "outputs": [
        {
          "internalType": "bool",
          "name": "",
          "type": "bool"
        }
      ],
      "stateMutability": "view",
      "type": "function"
    },
    {
      "inputs": [],
      "name": "name",
      "outputs": [
        {
          "internalType": "string",
          "name": "",
          "type": "string"
        }
      ],
      "stateMutability": "view",
      "type": "function"
    },
    {
      "inputs": [
        {
          "internalType": "uint256",
          "name": "tokenId",
          "type": "uint256"
        }
      ],
      "name": "ownerOf",
      "outputs": [
        {
          "internalType": "address",
          "name": "",
          "type": "address"
        }
      ],
      "stateMutability": "view",
      "type": "function"
    },
    {
      "inputs": [
        {
          "internalType": "address",
          "name": "from",
          "type": "address"
        },
        {
          "internalType": "address",
          "name": "to",
          "type": "address"
        },
        {
          "internalType": "uint256",
          "name": "tokenId",
          "type": "uint256"
        }
      ],
      "name": "safeTransferFrom",
      "outputs": [],
      "stateMutability": "nonpayable",
      "type": "function"
    },
    {
      "inputs": [
        {
          "internalType": "address",
          "name": "from",
          "type": "address"
        },
        {
          "internalType": "address",
          "name": "to",
          "type": "address"
        },
        {
          "internalType": "uint256",
          "name": "tokenId",
          "type": "uint256"
        },
        {
          "internalType": "bytes",
          "name": "data",
          "type": "bytes"
        }
      ],
      "name": "safeTransferFrom",
      "outputs": [],
      "stateMutability": "nonpayable",
      "type": "function"
    },
    {
      "inputs": [
        {
          "internalType": "address",
          "name": "operator",
          "type": "address"
        },
        {
          "internalType": "bool",
          "name": "approved",
          "type": "bool"
        }
      ],
      "name": "setApprovalForAll",
      "outputs": [],
      "stateMutability": "nonpayable",
      "type": "function"
    },
    {
      "inputs": [
        {
          "internalType": "bytes4",
          "name": "interfaceId",
          "type": "bytes4"
        }
      ],
      "name": "supportsInterface",
      "outputs": [
        {
          "internalType": "bool",
          "name": "",
          "type": "bool"
        }
      ],
      "stateMutability": "view",
      "type": "function"
    },
    {
      "inputs": [],
      "name": "symbol",
      "outputs": [
        {
          "internalType": "string",
          "name": "",
          "type": "string"
        }
      ],
      "stateMutability": "view",
      "type": "function"
    },
    {
      "inputs": [
        {
          "internalType": "uint256",
          "name": "tokenId",
          "type": "uint256"
        }
      ],
      "name": "tokenURI",
      "outputs": [
        {
          "internalType": "string",
          "name": "",
          "type": "string"
        }
      ],
      "stateMutability": "view",
      "type": "function"
    },
    {
      "inputs": [
        {
          "internalType": "address",
          "name": "from",
          "type": "address"
        },
        {
          "internalType": "address",
          "name": "to",
          "type": "address"
        },
        {
          "internalType": "uint256",
          "name": "tokenId",
          "type": "uint256"
        }
      ],
      "name": "transferFrom",
      "outputs": [],
      "stateMutability": "nonpayable",
      "type": "function"
    }
  ],
  "bytecode": "0x60806040523480156200001157600080fd5b506040516200160438038062001604833981016040819052620000349162000123565b818160006200004483826200021c565b5060016200005382826200021c565b5050505050620002e8565b634e487b7160e01b600052604160045260246000fd5b600082601f8301126200008657600080fd5b81516001600160401b0380821115620000a357620000a36200005e565b604051601f8301601f19908116603f01168101908282118183101715620000ce57620000ce6200005e565b81604052838152602092508683858801011115620000eb57600080fd5b600091505b838210156200010f5785820183015181830184015290820190620000f0565b600093810190920192909252949350505050565b600080604083850312156200013757600080fd5b82516001600160401b03808211156200014f57600080fd5b6200015d8683870162000074565b935060208501519150808211156200017457600080fd5b50620001838582860162000074565b9150509250929050565b600181811c90821680620001a257607f821691505b602082108103620001c357634e487b7160e01b600052602260045260246000fd5b50919050565b601f8211156200021757600081815260208120601f850160051c81016020861015620001f25750805b601f850160051c820191505b818110156200021357828155600101620001fe565b5050505b505050565b81516001600160401b038111156200023857620002386200005e565b62000250816200024984546200018d565b84620001c9565b602080601f8311600181146200028857600084156200026f5750858301515b600019600386901b1c1916600185901b17855562000213565b600085815260208120601f198616915b82811015620002b95788860151825594840194600190910190840162000298565b5085821015620002d85787850151600019600388901b60f8161c191681555b5050505050600190811b01905550565b61130c80620002f86000396000f3fe608060405234801561001057600080fd5b50600436106100ea5760003560e01c80637029144c1161008c578063a22cb46511610066578063a22cb465146101e1578063b88d4fde146101f4578063c87b56dd14610207578063e985e9c51461021a57600080fd5b80637029144c146101a557806370a08231146101b857806395d89b41146101d957600080fd5b8063095ea7b3116100c8578063095ea7b31461015757806323b872dd1461016c57806342842e0e1461017f5780636352211e1461019257600080fd5b806301ffc9a7146100ef57806306fdde0314610117578063081812fc1461012c575b600080fd5b6101026100fd366004610dd4565b61022d565b60405190151581526020015b60405180910390f35b61011f610258565b60405161010e9190610e41565b61013f61013a366004610e54565b6102ea565b6040516001600160a01b03909116815260200161010e565b61016a610165366004610e89565b610313565b005b61016a61017a366004610eb3565b610322565b61016a61018d366004610eb3565b6103b2565b61013f6101a0366004610e54565b6103d2565b61016a6101b3366004610f9b565b6103dd565b6101cb6101c6366004610fff565b6104ff565b60405190815260200161010e565b61011f610547565b61016a6101ef36600461101a565b610556565b61016a610202366004611056565b610561565b61011f610215366004610e54565b610578565b6101026102283660046110d2565b610689565b60006001600160e01b03198216632483248360e11b14806102525750610252826106b7565b92915050565b60606000805461026790611105565b80601f016020809104026020016040519081016040528092919081815260200182805461029390611105565b80156102e05780601f106102b5576101008083540402835291602001916102e0565b820191906000526020600020905b8154815290600101906020018083116102c357829003601f168201915b5050505050905090565b60006102f582610707565b506000828152600460205260409020546001600160a01b0316610252565b61031e828233610740565b5050565b6001600160a01b03821661035157604051633250574960e11b8152600060048201526024015b60405180910390fd5b600061035e83833361074d565b9050836001600160a01b0316816001600160a01b0316146103ac576040516364283d7b60e01b81526001600160a01b0380861660048301526024820184905282166044820152606401610348565b50505050565b6103cd83838360405180602001604052806000815250610561565b505050565b600061025282610707565b7ff0c57e16840df040f15088dc2f81fe391c3923bec73e23a9662efc9c229c6a008054600160401b810460ff16159067ffffffffffffffff166000811580156104235750825b905060008267ffffffffffffffff1660011480156104405750303b155b90508115801561044e575080155b1561046c5760405163f92ee8a960e01b815260040160405180910390fd5b845467ffffffffffffffff19166001178555831561049657845460ff60401b1916600160401b1785555b60006104a2888261118d565b5060016104af878261118d565b5083156104f657845460ff60401b19168555604051600181527fc7f505b2f371ae2175ee4913f4499e1f2633a7b5936321eed1cdaeb6115181d29060200160405180910390a15b50505050505050565b60006001600160a01b03821661052b576040516322718ad960e21b815260006004820152602401610348565b506001600160a01b031660009081526003602052604090205490565b60606001805461026790611105565b61031e338383610846565b61056c848484610322565b6103ac848484846108e5565b606061058382610707565b506000828152600660205260408120805461059d90611105565b80601f01602080910402602001604051908101604052809291908181526020018280546105c990611105565b80156106165780601f106105eb57610100808354040283529160200191610616565b820191906000526020600020905b8154815290600101906020018083116105f957829003601f168201915b50505050509050600061063460408051602081019091526000815290565b90508051600003610646575092915050565b81511561067857808260405160200161066092919061124d565b60405160208183030381529060405292505050919050565b61068184610a0e565b949350505050565b6001600160a01b03918216600090815260056020908152604080832093909416825291909152205460ff1690565b60006001600160e01b031982166380ac58cd60e01b14806106e857506001600160e01b03198216635b5e139f60e01b145b8061025257506301ffc9a760e01b6001600160e01b0319831614610252565b6000818152600260205260408120546001600160a01b03168061025257604051637e27328960e01b815260048101849052602401610348565b6103cd8383836001610a83565b6000828152600260205260408120546001600160a01b039081169083161561077a5761077a818486610b89565b6001600160a01b038116156107b857610797600085600080610a83565b6001600160a01b038116600090815260036020526040902080546000190190555b6001600160a01b038516156107e7576001600160a01b0385166000908152600360205260409020805460010190555b60008481526002602052604080822080546001600160a01b0319166001600160a01b0389811691821790925591518793918516917fddf252ad1be2c89b69c2b068fc378daa952ba7f163c4a11628f55a4df523b3ef91a4949350505050565b6001600160a01b03821661087857604051630b61174360e31b81526001600160a01b0383166004820152602401610348565b6001600160a01b03838116600081815260056020908152604080832094871680845294825291829020805460ff191686151590811790915591519182527f17307eab39ab6107e8899845ad3d59bd9653f200f220920489ca2b5937696c31910160405180910390a3505050565b6001600160a01b0383163b156103ac57604051630a85bd0160e11b81526001600160a01b0384169063150b7a029061092790339088908790879060040161127c565b6020604051808303816000875af1925050508015610962575060408051601f3d908101601f1916820190925261095f918101906112b9565b60015b6109cb573d808015610990576040519150601f19603f3d011682016040523d82523d6000602084013e610995565b606091505b5080516000036109c357604051633250574960e11b81526001600160a01b0385166004820152602401610348565b805181602001fd5b6001600160e01b03198116630a85bd0160e11b14610a0757604051633250574960e11b81526001600160a01b0385166004820152602401610348565b5050505050565b6060610a1982610707565b506000610a3160408051602081019091526000815290565b90506000815111610a515760405180602001604052806000815250610a7c565b80610a5b84610bed565b604051602001610a6c92919061124d565b6040516020818303038152906040525b9392505050565b8080610a9757506001600160a01b03821615155b15610b59576000610aa784610707565b90506001600160a01b03831615801590610ad35750826001600160a01b0316816001600160a01b031614155b8015610ae65750610ae48184610689565b155b15610b0f5760405163a9fbf51f60e01b81526001600160a01b0384166004820152602401610348565b8115610b575783856001600160a01b0316826001600160a01b03167f8c5be1e5ebec7d5bd14f71427d1e84f3dd0314c0f7b2291e5b200ac8c7c3b92560405160405180910390a45b505b5050600090815260046020526040902080546001600160a01b0319166001600160a01b0392909216919091179055565b610b94838383610c80565b6103cd576001600160a01b038316610bc257604051637e27328960e01b815260048101829052602401610348565b60405163177e802f60e01b81526001600160a01b038316600482015260248101829052604401610348565b60606000610bfa83610ce3565b600101905060008167ffffffffffffffff811115610c1a57610c1a610eef565b6040519080825280601f01601f191660200182016040528015610c44576020820181803683370190505b5090508181016020015b600019016f181899199a1a9b1b9c1cb0b131b232b360811b600a86061a8153600a8504945084610c4e57509392505050565b60006001600160a01b038316158015906106815750826001600160a01b0316846001600160a01b03161480610cba5750610cba8484610689565b806106815750506000908152600460205260409020546001600160a01b03908116911614919050565b60008072184f03e93ff9f4daa797ed6e38ed64bf6a1f0160401b8310610d225772184f03e93ff9f4daa797ed6e38ed64bf6a1f0160401b830492506040015b6d04ee2d6d415b85acef81000000008310610d4e576d04ee2d6d415b85acef8100000000830492506020015b662386f26fc100008310610d6c57662386f26fc10000830492506010015b6305f5e1008310610d84576305f5e100830492506008015b6127108310610d9857612710830492506004015b60648310610daa576064830492506002015b600a83106102525760010192915050565b6001600160e01b031981168114610dd157600080fd5b50565b600060208284031215610de657600080fd5b8135610a7c81610dbb565b60005b83811015610e0c578181015183820152602001610df4565b50506000910152565b60008151808452610e2d816020860160208601610df1565b601f01601f19169290920160200192915050565b602081526000610a7c6020830184610e15565b600060208284031215610e6657600080fd5b5035919050565b80356001600160a01b0381168114610e8457600080fd5b919050565b60008060408385031215610e9c57600080fd5b610ea583610e6d565b946020939093013593505050565b600080600060608486031215610ec857600080fd5b610ed184610e6d565b9250610edf60208501610e6d565b9150604084013590509250925092565b634e487b7160e01b600052604160045260246000fd5b600067ffffffffffffffff80841115610f2057610f20610eef565b604051601f8501601f19908116603f01168101908282118183101715610f4857610f48610eef565b81604052809350858152868686011115610f6157600080fd5b858560208301376000602087830101525050509392505050565b600082601f830112610f8c57600080fd5b610a7c83833560208501610f05565b60008060408385031215610fae57600080fd5b823567ffffffffffffffff80821115610fc657600080fd5b610fd286838701610f7b565b93506020850135915080821115610fe857600080fd5b50610ff585828601610f7b565b9150509250929050565b60006020828403121561101157600080fd5b610a7c82610e6d565b6000806040838503121561102d57600080fd5b61103683610e6d565b91506020830135801515811461104b57600080fd5b809150509250929050565b6000806000806080858703121561106c57600080fd5b61107585610e6d565b935061108360208601610e6d565b925060408501359150606085013567ffffffffffffffff8111156110a657600080fd5b8501601f810187136110b757600080fd5b6110c687823560208401610f05565b91505092959194509250565b600080604083850312156110e557600080fd5b6110ee83610e6d565b91506110fc60208401610e6d565b90509250929050565b600181811c9082168061111957607f821691505b60208210810361113957634e487b7160e01b600052602260045260246000fd5b50919050565b601f8211156103cd57600081815260208120601f850160051c810160208610156111665750805b601f850160051c820191505b8181101561118557828155600101611172565b505050505050565b815167ffffffffffffffff8111156111a7576111a7610eef565b6111bb816111b58454611105565b8461113f565b602080601f8311600181146111f057600084156111d85750858301515b600019600386901b1c1916600185901b178555611185565b600085815260208120601f198616915b8281101561121f57888601518255948401946001909101908401611200565b508582101561123d5787850151600019600388901b60f8161c191681555b5050505050600190811b01905550565b6000835161125f818460208801610df1565b835190830190611273818360208801610df1565b01949350505050565b6001600160a01b03858116825284166020820152604081018390526080606082018190526000906112af90830184610e15565b9695505050505050565b6000602082840312156112cb57600080fd5b8151610a7c81610dbb56fea2646970667358221220cc1d6c2c680276cfc10576ffb57796547534c6841578d9aac4b8ccad197662e264736f6c63430008140033",
  "linkReferences": {},
  "deployedLinkReferences": {}
}