{
  "_format": "hh-sol-artifact-1",
  "contractName": "Token",
  "sourceName": "contracts/Token.sol",
  "abi": [
    {
      "inputs": [],
      "stateMutability": "nonpayable",
      "type": "constructor"
    },
    {
      "inputs": [
        {
          "internalType": "address",
          "name": "to",
          "type": "address"
        },
        {
          "internalType": "address",
          "name": "verfier",
          "type": "address"
        },
        {
          "internalType": "bytes32[]",
          "name": "pars",
          "type": "bytes32[]"
        }
      ],
      "name": "ConditionNotMet",
      "type": "error"
    },
    {
      "inputs": [
        {
          "internalType": "address",
          "name": "sender",
          "type": "address"
        },
        {
          "internalType": "uint256",
          "name": "tokenId",
          "type": "uint256"
        },
        {
          "internalType": "address",
          "name": "owner",
          "type": "address"
        }
      ],
      "name": "ERC721IncorrectOwner",
      "type": "error"
    },
    {
      "inputs": [
        {
          "internalType": "address",
          "name": "operator",
          "type": "address"
        },
        {
          "internalType": "uint256",
          "name": "tokenId",
          "type": "uint256"
        }
      ],
      "name": "ERC721InsufficientApproval",
      "type": "error"
    },
    {
      "inputs": [
        {
          "internalType": "address",
          "name": "approver",
          "type": "address"
        }
      ],
      "name": "ERC721InvalidApprover",
      "type": "error"
    },
    {
      "inputs": [
        {
          "internalType": "address",
          "name": "operator",
          "type": "address"
        }
      ],
      "name": "ERC721InvalidOperator",
      "type": "error"
    },
    {
      "inputs": [
        {
          "internalType": "address",
          "name": "owner",
          "type": "address"
        }
      ],
      "name": "ERC721InvalidOwner",
      "type": "error"
    },
    {
      "inputs": [
        {
          "internalType": "address",
          "name": "receiver",
          "type": "address"
        }
      ],
      "name": "ERC721InvalidReceiver",
      "type": "error"
    },
    {
      "inputs": [
        {
          "internalType": "address",
          "name": "sender",
          "type": "address"
        }
      ],
      "name": "ERC721InvalidSender",
      "type": "error"
    },
    {
      "inputs": [
        {
          "internalType": "uint256",
          "name": "tokenId",
          "type": "uint256"
        }
      ],
      "name": "ERC721NonexistentToken",
      "type": "error"
    },
    {
      "inputs": [],
      "name": "InvalidInitialization",
      "type": "error"
    },
    {
      "inputs": [],
      "name": "NotInitializing",
      "type": "error"
    },
    {
      "inputs": [
        {
          "internalType": "address",
          "name": "owner",
          "type": "address"
        }
      ],
      "name": "OwnableInvalidOwner",
      "type": "error"
    },
    {
      "inputs": [
        {
          "internalType": "address",
          "name": "account",
          "type": "address"
        }
      ],
      "name": "OwnableUnauthorizedAccount",
      "type": "error"
    },
    {
      "anonymous": false,
      "inputs": [
        {
          "indexed": true,
          "internalType": "address",
          "name": "owner",
          "type": "address"
        },
        {
          "indexed": true,
          "internalType": "address",
          "name": "approved",
          "type": "address"
        },
        {
          "indexed": true,
          "internalType": "uint256",
          "name": "tokenId",
          "type": "uint256"
        }
      ],
      "name": "Approval",
      "type": "event"
    },
    {
      "anonymous": false,
      "inputs": [
        {
          "indexed": true,
          "internalType": "address",
          "name": "owner",
          "type": "address"
        },
        {
          "indexed": true,
          "internalType": "address",
          "name": "operator",
          "type": "address"
        },
        {
          "indexed": false,
          "internalType": "bool",
          "name": "approved",
          "type": "bool"
        }
      ],
      "name": "ApprovalForAll",
      "type": "event"
    },
    {
      "anonymous": false,
      "inputs": [
        {
          "indexed": false,
          "internalType": "uint256",
          "name": "_fromTokenId",
          "type": "uint256"
        },
        {
          "indexed": false,
          "internalType": "uint256",
          "name": "_toTokenId",
          "type": "uint256"
        }
      ],
      "name": "BatchMetadataUpdate",
      "type": "event"
    },
    {
      "anonymous": false,
      "inputs": [
        {
          "indexed": false,
          "internalType": "uint64",
          "name": "version",
          "type": "uint64"
        }
      ],
      "name": "Initialized",
      "type": "event"
    },
    {
      "anonymous": false,
      "inputs": [
        {
          "indexed": false,
          "internalType": "uint256",
          "name": "_tokenId",
          "type": "uint256"
        }
      ],
      "name": "MetadataUpdate",
      "type": "event"
    },
    {
      "anonymous": false,
      "inputs": [
        {
          "indexed": true,
          "internalType": "address",
          "name": "previousOwner",
          "type": "address"
        },
        {
          "indexed": true,
          "internalType": "address",
          "name": "newOwner",
          "type": "address"
        }
      ],
      "name": "OwnershipTransferred",
      "type": "event"
    },
    {
      "anonymous": false,
      "inputs": [
        {
          "indexed": true,
          "internalType": "address",
          "name": "from",
          "type": "address"
        },
        {
          "indexed": true,
          "internalType": "address",
          "name": "to",
          "type": "address"
        },
        {
          "indexed": true,
          "internalType": "uint256",
          "name": "tokenId",
          "type": "uint256"
        }
      ],
      "name": "Transfer",
      "type": "event"
    },
    {
      "inputs": [
        {
          "internalType": "address",
          "name": "to",
          "type": "address"
        },
        {
          "internalType": "uint256",
          "name": "tokenId",
          "type": "uint256"
        }
      ],
      "name": "approve",
      "outputs": [],
      "stateMutability": "nonpayable",
      "type": "function"
    },
    {
      "inputs": [
        {
          "internalType": "address",
          "name": "owner",
          "type": "address"
        }
      ],
      "name": "balanceOf",
      "outputs": [
        {
          "internalType": "uint256",
          "name": "",
          "type": "uint256"
        }
      ],
      "stateMutability": "view",
      "type": "function"
    },
    {
      "inputs": [
        {
          "internalType": "uint256",
          "name": "tokenId",
          "type": "uint256"
        }
      ],
      "name": "getApproved",
      "outputs": [
        {
          "internalType": "address",
          "name": "",
          "type": "address"
        }
      ],
      "stateMutability": "view",
      "type": "function"
    },
    {
      "inputs": [
        {
          "internalType": "string",
          "name": "__name",
          "type": "string"
        },
        {
          "internalType": "string",
          "name": "__symbol",
          "type": "string"
        },
        {
          "internalType": "address",
          "name": "owner",
          "type": "address"
        },
        {
          "internalType": "address[]",
          "name": "_verifiers",
          "type": "address[]"
        },
        {
          "internalType": "bytes32[][]",
          "name": "_parsArray",
          "type": "bytes32[][]"
        }
      ],
      "name": "init",
      "outputs": [],
      "stateMutability": "nonpayable",
      "type": "function"
    },
    {
      "inputs": [
        {
          "internalType": "address",
          "name": "owner",
          "type": "address"
        },
        {
          "internalType": "address",
          "name": "operator",
          "type": "address"
        }
      ],
      "name": "isApprovedForAll",
      "outputs": [
        {
          "internalType": "bool",
          "name": "",
          "type": "bool"
        }
      ],
      "stateMutability": "view",
      "type": "function"
    },
    {
      "inputs": [
        {
          "internalType": "address",
          "name": "to",
          "type": "address"
        }
      ],
      "name": "mint",
      "outputs": [],
      "stateMutability": "nonpayable",
      "type": "function"
    },
    {
      "inputs": [],
      "name": "name",
      "outputs": [
        {
          "internalType": "string",
          "name": "",
          "type": "string"
        }
      ],
      "stateMutability": "view",
      "type": "function"
    },
    {
      "inputs": [],
      "name": "owner",
      "outputs": [
        {
          "internalType": "address",
          "name": "",
          "type": "address"
        }
      ],
      "stateMutability": "view",
      "type": "function"
    },
    {
      "inputs": [
        {
          "internalType": "uint256",
          "name": "tokenId",
          "type": "uint256"
        }
      ],
      "name": "ownerOf",
      "outputs": [
        {
          "internalType": "address",
          "name": "",
          "type": "address"
        }
      ],
      "stateMutability": "view",
      "type": "function"
    },
    {
      "inputs": [],
      "name": "renounceOwnership",
      "outputs": [],
      "stateMutability": "nonpayable",
      "type": "function"
    },
    {
      "inputs": [
        {
          "internalType": "address",
          "name": "from",
          "type": "address"
        },
        {
          "internalType": "address",
          "name": "to",
          "type": "address"
        },
        {
          "internalType": "uint256",
          "name": "tokenId",
          "type": "uint256"
        }
      ],
      "name": "safeTransferFrom",
      "outputs": [],
      "stateMutability": "nonpayable",
      "type": "function"
    },
    {
      "inputs": [
        {
          "internalType": "address",
          "name": "from",
          "type": "address"
        },
        {
          "internalType": "address",
          "name": "to",
          "type": "address"
        },
        {
          "internalType": "uint256",
          "name": "tokenId",
          "type": "uint256"
        },
        {
          "internalType": "bytes",
          "name": "data",
          "type": "bytes"
        }
      ],
      "name": "safeTransferFrom",
      "outputs": [],
      "stateMutability": "nonpayable",
      "type": "function"
    },
    {
      "inputs": [
        {
          "internalType": "address",
          "name": "operator",
          "type": "address"
        },
        {
          "internalType": "bool",
          "name": "approved",
          "type": "bool"
        }
      ],
      "name": "setApprovalForAll",
      "outputs": [],
      "stateMutability": "nonpayable",
      "type": "function"
    },
    {
      "inputs": [
        {
          "internalType": "bytes4",
          "name": "interfaceId",
          "type": "bytes4"
        }
      ],
      "name": "supportsInterface",
      "outputs": [
        {
          "internalType": "bool",
          "name": "",
          "type": "bool"
        }
      ],
      "stateMutability": "view",
      "type": "function"
    },
    {
      "inputs": [],
      "name": "symbol",
      "outputs": [
        {
          "internalType": "string",
          "name": "",
          "type": "string"
        }
      ],
      "stateMutability": "view",
      "type": "function"
    },
    {
      "inputs": [
        {
          "internalType": "uint256",
          "name": "tokenId",
          "type": "uint256"
        }
      ],
      "name": "tokenURI",
      "outputs": [
        {
          "internalType": "string",
          "name": "",
          "type": "string"
        }
      ],
      "stateMutability": "view",
      "type": "function"
    },
    {
      "inputs": [
        {
          "internalType": "address",
          "name": "from",
          "type": "address"
        },
        {
          "internalType": "address",
          "name": "to",
          "type": "address"
        },
        {
          "internalType": "uint256",
          "name": "tokenId",
          "type": "uint256"
        }
      ],
      "name": "transferFrom",
      "outputs": [],
      "stateMutability": "nonpayable",
      "type": "function"
    },
    {
      "inputs": [
        {
          "internalType": "address",
          "name": "newOwner",
          "type": "address"
        }
      ],
      "name": "transferOwnership",
      "outputs": [],
      "stateMutability": "nonpayable",
      "type": "function"
    }
  ],
  "bytecode": "0x60806040523480156200001157600080fd5b5060408051602080820183526000808352835191820190935282815233926200003b83826200018a565b5060016200004a82826200018a565b5050506001600160a01b0381166200007c57604051631e4fbdf760e01b81526000600482015260240160405180910390fd5b620000878162000093565b50600060085562000256565b600780546001600160a01b038381166001600160a01b0319831681179093556040519116919082907f8be0079c531659141344cd1fd0a4f28419497f9722a3daafe3b4186f6b6457e090600090a35050565b634e487b7160e01b600052604160045260246000fd5b600181811c908216806200011057607f821691505b6020821081036200013157634e487b7160e01b600052602260045260246000fd5b50919050565b601f8211156200018557600081815260208120601f850160051c81016020861015620001605750805b601f850160051c820191505b8181101562000181578281556001016200016c565b5050505b505050565b81516001600160401b03811115620001a657620001a6620000e5565b620001be81620001b78454620000fb565b8462000137565b602080601f831160018114620001f65760008415620001dd5750858301515b600019600386901b1c1916600185901b17855562000181565b600085815260208120601f198616915b82811015620002275788860151825594840194600190910190840162000206565b5085821015620002465787850151600019600388901b60f8161c191681555b5050505050600190811b01905550565b611ad680620002666000396000f3fe608060405234801561001057600080fd5b50600436106101165760003560e01c8063715018a6116100a2578063b88d4fde11610071578063b88d4fde14610239578063bac17ba51461024c578063c87b56dd1461025f578063e985e9c514610272578063f2fde38b1461028557600080fd5b8063715018a6146102055780638da5cb5b1461020d57806395d89b411461021e578063a22cb4651461022657600080fd5b806323b872dd116100e957806323b872dd1461019857806342842e0e146101ab5780636352211e146101be5780636a627842146101d157806370a08231146101e457600080fd5b806301ffc9a71461011b57806306fdde0314610143578063081812fc14610158578063095ea7b314610183575b600080fd5b61012e6101293660046112af565b610298565b60405190151581526020015b60405180910390f35b61014b6102c3565b60405161013a919061131c565b61016b61016636600461132f565b610355565b6040516001600160a01b03909116815260200161013a565b610196610191366004611364565b61037e565b005b6101966101a636600461138e565b61038d565b6101966101b936600461138e565b61041d565b61016b6101cc36600461132f565b61043d565b6101966101df3660046113ca565b610448565b6101f76101f23660046113ca565b6105cf565b60405190815260200161013a565b610196610617565b6007546001600160a01b031661016b565b61014b61062b565b6101966102343660046113f3565b61063a565b6101966102473660046114c9565b610645565b61019661025a36600461166f565b61065c565b61014b61026d36600461132f565b6108a6565b61012e610280366004611787565b6109b7565b6101966102933660046113ca565b6109e5565b60006001600160e01b03198216632483248360e11b14806102bd57506102bd82610a20565b92915050565b6060600080546102d2906117ba565b80601f01602080910402602001604051908101604052809291908181526020018280546102fe906117ba565b801561034b5780601f106103205761010080835404028352916020019161034b565b820191906000526020600020905b81548152906001019060200180831161032e57829003601f168201915b5050505050905090565b600061036082610a70565b506000828152600460205260409020546001600160a01b03166102bd565b610389828233610aa9565b5050565b6001600160a01b0382166103bc57604051633250574960e11b8152600060048201526024015b60405180910390fd5b60006103c9838333610ab6565b9050836001600160a01b0316816001600160a01b031614610417576040516364283d7b60e01b81526001600160a01b03808616600483015260248201849052821660448201526064016103b3565b50505050565b61043883838360405180602001604052806000815250610645565b505050565b60006102bd82610a70565b60005b60095460ff821610156105ac57600060098260ff1681548110610470576104706117f4565b6000918252602091829020604080518082018252600290930290910180546001600160a01b031683526001810180548351818702810187019094528084529394919385830193928301828280156104e657602002820191906000526020600020905b8154815260200190600101908083116104d2575b5050505050815250509050600081600001516001600160a01b031663b76a0df48584602001516040518363ffffffff1660e01b8152600401610529929190611845565b6020604051808303816000875af1158015610548573d6000803e3d6000fd5b505050506040513d601f19601f8201168201806040525081019061056c9190611869565b90508061059757815160208301516040516336492c7b60e01b81526103b39287929091600401611886565b505080806105a4906118d1565b91505061044b565b50600880546105cc9183919060006105c3836118f0565b91905055610baf565b50565b60006001600160a01b0382166105fb576040516322718ad960e21b8152600060048201526024016103b3565b506001600160a01b031660009081526003602052604090205490565b61061f610bc9565b6106296000610bf6565b565b6060600180546102d2906117ba565b610389338383610c48565b61065084848461038d565b61041784848484610ce7565b7ff0c57e16840df040f15088dc2f81fe391c3923bec73e23a9662efc9c229c6a008054600160401b810460ff16159067ffffffffffffffff166000811580156106a25750825b905060008267ffffffffffffffff1660011480156106bf5750303b155b9050811580156106cd575080155b156106eb5760405163f92ee8a960e01b815260040160405180910390fd5b845467ffffffffffffffff19166001178555831561071557845460ff60401b1916600160401b1785555b60006107218b82611957565b50600161072e8a82611957565b5061073888610bf6565b60005b87518160ff16101561085357604080518082019091526000815260606020820152888260ff1681518110610771576107716117f4565b60209081029190910101516001600160a01b031681528751889060ff841690811061079e5761079e6117f4565b6020908102919091018101518282019081526009805460018101825560009190915283517f6e1540171b6c0c960b71a7020d9f60077f6af931a8bbf590da0223dacf75c7af600290920291820180546001600160a01b0319166001600160a01b0390921691909117815591518051859461083c937f6e1540171b6c0c960b71a7020d9f60077f6af931a8bbf590da0223dacf75c7b001920190611239565b50505050808061084b906118d1565b91505061073b565b50831561089a57845460ff60401b19168555604051600181527fc7f505b2f371ae2175ee4913f4499e1f2633a7b5936321eed1cdaeb6115181d29060200160405180910390a15b50505050505050505050565b60606108b182610a70565b50600082815260066020526040812080546108cb906117ba565b80601f01602080910402602001604051908101604052809291908181526020018280546108f7906117ba565b80156109445780601f1061091957610100808354040283529160200191610944565b820191906000526020600020905b81548152906001019060200180831161092757829003601f168201915b50505050509050600061096260408051602081019091526000815290565b90508051600003610974575092915050565b8151156109a657808260405160200161098e929190611a17565b60405160208183030381529060405292505050919050565b6109af84610e10565b949350505050565b6001600160a01b03918216600090815260056020908152604080832093909416825291909152205460ff1690565b6109ed610bc9565b6001600160a01b038116610a1757604051631e4fbdf760e01b8152600060048201526024016103b3565b6105cc81610bf6565b60006001600160e01b031982166380ac58cd60e01b1480610a5157506001600160e01b03198216635b5e139f60e01b145b806102bd57506301ffc9a760e01b6001600160e01b03198316146102bd565b6000818152600260205260408120546001600160a01b0316806102bd57604051637e27328960e01b8152600481018490526024016103b3565b6104388383836001610e85565b6000828152600260205260408120546001600160a01b0390811690831615610ae357610ae3818486610f8b565b6001600160a01b03811615610b2157610b00600085600080610e85565b6001600160a01b038116600090815260036020526040902080546000190190555b6001600160a01b03851615610b50576001600160a01b0385166000908152600360205260409020805460010190555b60008481526002602052604080822080546001600160a01b0319166001600160a01b0389811691821790925591518793918516917fddf252ad1be2c89b69c2b068fc378daa952ba7f163c4a11628f55a4df523b3ef91a4949350505050565b610389828260405180602001604052806000815250610fef565b6007546001600160a01b031633146106295760405163118cdaa760e01b81523360048201526024016103b3565b600780546001600160a01b038381166001600160a01b0319831681179093556040519116919082907f8be0079c531659141344cd1fd0a4f28419497f9722a3daafe3b4186f6b6457e090600090a35050565b6001600160a01b038216610c7a57604051630b61174360e31b81526001600160a01b03831660048201526024016103b3565b6001600160a01b03838116600081815260056020908152604080832094871680845294825291829020805460ff191686151590811790915591519182527f17307eab39ab6107e8899845ad3d59bd9653f200f220920489ca2b5937696c31910160405180910390a3505050565b6001600160a01b0383163b1561041757604051630a85bd0160e11b81526001600160a01b0384169063150b7a0290610d29903390889087908790600401611a46565b6020604051808303816000875af1925050508015610d64575060408051601f3d908101601f19168201909252610d6191810190611a83565b60015b610dcd573d808015610d92576040519150601f19603f3d011682016040523d82523d6000602084013e610d97565b606091505b508051600003610dc557604051633250574960e11b81526001600160a01b03851660048201526024016103b3565b805181602001fd5b6001600160e01b03198116630a85bd0160e11b14610e0957604051633250574960e11b81526001600160a01b03851660048201526024016103b3565b5050505050565b6060610e1b82610a70565b506000610e3360408051602081019091526000815290565b90506000815111610e535760405180602001604052806000815250610e7e565b80610e5d84611006565b604051602001610e6e929190611a17565b6040516020818303038152906040525b9392505050565b8080610e9957506001600160a01b03821615155b15610f5b576000610ea984610a70565b90506001600160a01b03831615801590610ed55750826001600160a01b0316816001600160a01b031614155b8015610ee85750610ee681846109b7565b155b15610f115760405163a9fbf51f60e01b81526001600160a01b03841660048201526024016103b3565b8115610f595783856001600160a01b0316826001600160a01b03167f8c5be1e5ebec7d5bd14f71427d1e84f3dd0314c0f7b2291e5b200ac8c7c3b92560405160405180910390a45b505b5050600090815260046020526040902080546001600160a01b0319166001600160a01b0392909216919091179055565b610f96838383611099565b610438576001600160a01b038316610fc457604051637e27328960e01b8152600481018290526024016103b3565b60405163177e802f60e01b81526001600160a01b0383166004820152602481018290526044016103b3565b610ff983836110fc565b6104386000848484610ce7565b6060600061101383611161565b600101905060008167ffffffffffffffff8111156110335761103361142a565b6040519080825280601f01601f19166020018201604052801561105d576020820181803683370190505b5090508181016020015b600019016f181899199a1a9b1b9c1cb0b131b232b360811b600a86061a8153600a850494508461106757509392505050565b60006001600160a01b038316158015906109af5750826001600160a01b0316846001600160a01b031614806110d357506110d384846109b7565b806109af5750506000908152600460205260409020546001600160a01b03908116911614919050565b6001600160a01b03821661112657604051633250574960e11b8152600060048201526024016103b3565b600061113483836000610ab6565b90506001600160a01b03811615610438576040516339e3563760e11b8152600060048201526024016103b3565b60008072184f03e93ff9f4daa797ed6e38ed64bf6a1f0160401b83106111a05772184f03e93ff9f4daa797ed6e38ed64bf6a1f0160401b830492506040015b6d04ee2d6d415b85acef810000000083106111cc576d04ee2d6d415b85acef8100000000830492506020015b662386f26fc1000083106111ea57662386f26fc10000830492506010015b6305f5e1008310611202576305f5e100830492506008015b612710831061121657612710830492506004015b60648310611228576064830492506002015b600a83106102bd5760010192915050565b828054828255906000526020600020908101928215611274579160200282015b82811115611274578251825591602001919060010190611259565b50611280929150611284565b5090565b5b808211156112805760008155600101611285565b6001600160e01b0319811681146105cc57600080fd5b6000602082840312156112c157600080fd5b8135610e7e81611299565b60005b838110156112e75781810151838201526020016112cf565b50506000910152565b600081518084526113088160208601602086016112cc565b601f01601f19169290920160200192915050565b602081526000610e7e60208301846112f0565b60006020828403121561134157600080fd5b5035919050565b80356001600160a01b038116811461135f57600080fd5b919050565b6000806040838503121561137757600080fd5b61138083611348565b946020939093013593505050565b6000806000606084860312156113a357600080fd5b6113ac84611348565b92506113ba60208501611348565b9150604084013590509250925092565b6000602082840312156113dc57600080fd5b610e7e82611348565b80151581146105cc57600080fd5b6000806040838503121561140657600080fd5b61140f83611348565b9150602083013561141f816113e5565b809150509250929050565b634e487b7160e01b600052604160045260246000fd5b604051601f8201601f1916810167ffffffffffffffff811182821017156114695761146961142a565b604052919050565b600067ffffffffffffffff83111561148b5761148b61142a565b61149e601f8401601f1916602001611440565b90508281528383830111156114b257600080fd5b828260208301376000602084830101529392505050565b600080600080608085870312156114df57600080fd5b6114e885611348565b93506114f660208601611348565b925060408501359150606085013567ffffffffffffffff81111561151957600080fd5b8501601f8101871361152a57600080fd5b61153987823560208401611471565b91505092959194509250565b600082601f83011261155657600080fd5b610e7e83833560208501611471565b600067ffffffffffffffff82111561157f5761157f61142a565b5060051b60200190565b600082601f83011261159a57600080fd5b813560206115af6115aa83611565565b611440565b828152600592831b85018201928282019190878511156115ce57600080fd5b8387015b8581101561166257803567ffffffffffffffff8111156115f25760008081fd5b8801603f81018a136116045760008081fd5b8581013560406116166115aa83611565565b82815291851b8301810191888101908d8411156116335760008081fd5b938201935b8385101561165157843582529389019390890190611638565b8852505050938501935084016115d2565b5090979650505050505050565b600080600080600060a0868803121561168757600080fd5b853567ffffffffffffffff8082111561169f57600080fd5b6116ab89838a01611545565b96506020915081880135818111156116c257600080fd5b6116ce8a828b01611545565b9650506116dd60408901611348565b94506060880135818111156116f157600080fd5b8801601f81018a1361170257600080fd5b80356117106115aa82611565565b81815260059190911b8201840190848101908c83111561172f57600080fd5b928501925b828410156117545761174584611348565b82529285019290850190611734565b9650505050608088013591508082111561176d57600080fd5b5061177a88828901611589565b9150509295509295909350565b6000806040838503121561179a57600080fd5b6117a383611348565b91506117b160208401611348565b90509250929050565b600181811c908216806117ce57607f821691505b6020821081036117ee57634e487b7160e01b600052602260045260246000fd5b50919050565b634e487b7160e01b600052603260045260246000fd5b600081518084526020808501945080840160005b8381101561183a5781518752958201959082019060010161181e565b509495945050505050565b6001600160a01b03831681526040602082018190526000906109af9083018461180a565b60006020828403121561187b57600080fd5b8151610e7e816113e5565b6001600160a01b038481168252831660208201526060604082018190526000906118b29083018461180a565b95945050505050565b634e487b7160e01b600052601160045260246000fd5b600060ff821660ff81036118e7576118e76118bb565b60010192915050565b600060018201611902576119026118bb565b5060010190565b601f82111561043857600081815260208120601f850160051c810160208610156119305750805b601f850160051c820191505b8181101561194f5782815560010161193c565b505050505050565b815167ffffffffffffffff8111156119715761197161142a565b6119858161197f84546117ba565b84611909565b602080601f8311600181146119ba57600084156119a25750858301515b600019600386901b1c1916600185901b17855561194f565b600085815260208120601f198616915b828110156119e9578886015182559484019460019091019084016119ca565b5085821015611a075787850151600019600388901b60f8161c191681555b5050505050600190811b01905550565b60008351611a298184602088016112cc565b835190830190611a3d8183602088016112cc565b01949350505050565b6001600160a01b0385811682528416602082015260408101839052608060608201819052600090611a79908301846112f0565b9695505050505050565b600060208284031215611a9557600080fd5b8151610e7e8161129956fea2646970667358221220fb53a1c5bc2eeaa8f5dcd00585f1529f10cb03e069af55fd36f593517a80455f64736f6c63430008140033",
  "linkReferences": {},
  "deployedLinkReferences": {}
}