{
  "_format": "hh-sol-artifact-1",
  "contractName": "ERC20BalanceOf",
  "sourceName": "contracts/verifiers/ERC20BalanceOf.sol",
  "abi": [
    {
      "inputs": [],
      "stateMutability": "nonpayable",
      "type": "constructor"
    },
    {
      "inputs": [
        {
          "internalType": "address",
          "name": "who",
          "type": "address"
        }
      ],
      "name": "BalanceNotEnough",
      "type": "error"
    },
    {
      "inputs": [],
      "name": "WrongNumberOfParameters",
      "type": "error"
    },
    {
      "anonymous": false,
      "inputs": [
        {
          "indexed": true,
          "internalType": "address",
          "name": "adr",
          "type": "address"
        }
      ],
      "name": "Verified",
      "type": "event"
    },
    {
      "inputs": [
        {
          "internalType": "address",
          "name": "who",
          "type": "address"
        },
        {
          "internalType": "bytes32[]",
          "name": "pars",
          "type": "bytes32[]"
        }
      ],
      "name": "verify",
      "outputs": [
        {
          "internalType": "bool",
          "name": "",
          "type": "bool"
        }
      ],
      "stateMutability": "nonpayable",
      "type": "function"
    }
  ],
  "bytecode": "0x608060405234801561001057600080fd5b506102f9806100206000396000f3fe608060405234801561001057600080fd5b506004361061002b5760003560e01c8063b76a0df414610030575b600080fd5b61004361003e3660046101b5565b610057565b604051901515815260200160405180910390f35b6000815160021461007b57604051633365ea4560e01b815260040160405180910390fd5b60008260008151811061009057610090610294565b602002602001015160001c90506000836001815181106100b2576100b2610294565b60209081029190910101516040516370a0823160e01b81526001600160a01b0387811660048301529192506000918416906370a0823190602401602060405180830381865afa158015610109573d6000803e3d6000fd5b505050506040513d601f19601f8201168201806040525081019061012d91906102aa565b90508181101561015f57604051636ac9bbaf60e01b81526001600160a01b038716600482015260240160405180910390fd5b6040516001600160a01b038716907f6a6455914f452787eb3985452aceedc1000fb545e394eb3b370e3d08958e0a5b90600090a250600195945050505050565b634e487b7160e01b600052604160045260246000fd5b600080604083850312156101c857600080fd5b82356001600160a01b03811681146101df57600080fd5b915060208381013567ffffffffffffffff808211156101fd57600080fd5b818601915086601f83011261021157600080fd5b8135818111156102235761022361019f565b8060051b604051601f19603f830116810181811085821117156102485761024861019f565b60405291825284820192508381018501918983111561026657600080fd5b938501935b828510156102845784358452938501939285019261026b565b8096505050505050509250929050565b634e487b7160e01b600052603260045260246000fd5b6000602082840312156102bc57600080fd5b505191905056fea2646970667358221220f2a09aaebf6c1c8d58dbecf062c5bd86e5d187977bfec13c58c652809546afa664736f6c63430008140033",
  "linkReferences": {},
  "deployedLinkReferences": {}
}