{
  "_format": "hh-sol-artifact-1",
  "contractName": "FunctionsConsumer",
  "sourceName": "contracts/k3ys/FunctionsConsumer.sol",
  "abi": [
    {
      "inputs": [
        {
          "internalType": "address",
          "name": "router",
          "type": "address"
        },
        {
          "internalType": "bytes32",
          "name": "_donId",
          "type": "bytes32"
        }
      ],
      "stateMutability": "nonpayable",
      "type": "constructor"
    },
    {
      "inputs": [
        {
          "internalType": "address",
          "name": "adr",
          "type": "address"
        }
      ],
      "name": "CantMintTwice",
      "type": "error"
    },
    {
      "inputs": [],
      "name": "EmptyArgs",
      "type": "error"
    },
    {
      "inputs": [],
      "name": "EmptySource",
      "type": "error"
    },
    {
      "inputs": [],
      "name": "NoInlineSecrets",
      "type": "error"
    },
    {
      "inputs": [],
      "name": "OnlyRouterCanFulfill",
      "type": "error"
    },
    {
      "anonymous": false,
      "inputs": [
        {
          "indexed": true,
          "internalType": "address",
          "name": "from",
          "type": "address"
        },
        {
          "indexed": true,
          "internalType": "address",
          "name": "to",
          "type": "address"
        }
      ],
      "name": "OwnershipTransferRequested",
      "type": "event"
    },
    {
      "anonymous": false,
      "inputs": [
        {
          "indexed": true,
          "internalType": "address",
          "name": "from",
          "type": "address"
        },
        {
          "indexed": true,
          "internalType": "address",
          "name": "to",
          "type": "address"
        }
      ],
      "name": "OwnershipTransferred",
      "type": "event"
    },
    {
      "anonymous": false,
      "inputs": [
        {
          "indexed": true,
          "internalType": "bytes32",
          "name": "id",
          "type": "bytes32"
        }
      ],
      "name": "RequestFulfilled",
      "type": "event"
    },
    {
      "anonymous": false,
      "inputs": [
        {
          "indexed": true,
          "internalType": "bytes32",
          "name": "id",
          "type": "bytes32"
        }
      ],
      "name": "RequestSent",
      "type": "event"
    },
    {
      "inputs": [],
      "name": "acceptOwnership",
      "outputs": [],
      "stateMutability": "nonpayable",
      "type": "function"
    },
    {
      "inputs": [],
      "name": "donId",
      "outputs": [
        {
          "internalType": "bytes32",
          "name": "",
          "type": "bytes32"
        }
      ],
      "stateMutability": "view",
      "type": "function"
    },
    {
      "inputs": [
        {
          "internalType": "bytes32",
          "name": "requestId",
          "type": "bytes32"
        },
        {
          "internalType": "bytes",
          "name": "response",
          "type": "bytes"
        },
        {
          "internalType": "bytes",
          "name": "err",
          "type": "bytes"
        }
      ],
      "name": "handleOracleFulfillment",
      "outputs": [],
      "stateMutability": "nonpayable",
      "type": "function"
    },
    {
      "inputs": [],
      "name": "owner",
      "outputs": [
        {
          "internalType": "address",
          "name": "",
          "type": "address"
        }
      ],
      "stateMutability": "view",
      "type": "function"
    },
    {
      "inputs": [],
      "name": "s_lastError",
      "outputs": [
        {
          "internalType": "bytes",
          "name": "",
          "type": "bytes"
        }
      ],
      "stateMutability": "view",
      "type": "function"
    },
    {
      "inputs": [],
      "name": "s_lastRequestId",
      "outputs": [
        {
          "internalType": "bytes32",
          "name": "",
          "type": "bytes32"
        }
      ],
      "stateMutability": "view",
      "type": "function"
    },
    {
      "inputs": [],
      "name": "s_lastResponse",
      "outputs": [
        {
          "internalType": "bytes",
          "name": "",
          "type": "bytes"
        }
      ],
      "stateMutability": "view",
      "type": "function"
    },
    {
      "inputs": [
        {
          "internalType": "string",
          "name": "source",
          "type": "string"
        },
        {
          "internalType": "enum FunctionsRequest.Location",
          "name": "secretsLocation",
          "type": "uint8"
        },
        {
          "internalType": "bytes",
          "name": "encryptedSecretsReference",
          "type": "bytes"
        },
        {
          "internalType": "string[]",
          "name": "args",
          "type": "string[]"
        },
        {
          "internalType": "bytes[]",
          "name": "bytesArgs",
          "type": "bytes[]"
        },
        {
          "internalType": "uint64",
          "name": "subscriptionId",
          "type": "uint64"
        },
        {
          "internalType": "uint32",
          "name": "callbackGasLimit",
          "type": "uint32"
        }
      ],
      "name": "sendRequest",
      "outputs": [],
      "stateMutability": "nonpayable",
      "type": "function"
    },
    {
      "inputs": [
        {
          "internalType": "address",
          "name": "to",
          "type": "address"
        }
      ],
      "name": "transferOwnership",
      "outputs": [],
      "stateMutability": "nonpayable",
      "type": "function"
    }
  ],
  "bytecode": "0x60a06040523480156200001157600080fd5b506040516200194c3803806200194c833981016040819052620000349162000183565b6001600160a01b0382166080523380600081620000985760405162461bcd60e51b815260206004820152601860248201527f43616e6e6f7420736574206f776e657220746f207a65726f000000000000000060448201526064015b60405180910390fd5b600080546001600160a01b0319166001600160a01b0384811691909117909155811615620000cb57620000cb81620000d8565b50505060025550620001bf565b336001600160a01b03821603620001325760405162461bcd60e51b815260206004820152601760248201527f43616e6e6f74207472616e7366657220746f2073656c6600000000000000000060448201526064016200008f565b600180546001600160a01b0319166001600160a01b0383811691821790925560008054604051929316917fed8889f560326eb138920d842192f0eb3dd22b4f139c87a2c57538e05bae12789190a350565b600080604083850312156200019757600080fd5b82516001600160a01b0381168114620001af57600080fd5b6020939093015192949293505050565b60805161176a620001e26000396000818161014701526108c0015261176a6000f3fe608060405234801561001057600080fd5b50600436106100935760003560e01c806379ba50971161006657806379ba5097146100e65780638da5cb5b146100ee5780638dbe7b9d14610109578063b1e2174914610120578063f2fde38b1461012957600080fd5b80630ca7617514610098578063231c1619146100ad5780633944ea3a146100c05780634b0795a8146100de575b600080fd5b6100ab6100a6366004610ff8565b61013c565b005b6100ab6100bb36600461112f565b6101c0565b6100c8610307565b6040516100d5919061126b565b60405180910390f35b6100c8610395565b6100ab6103a2565b6000546040516001600160a01b0390911681526020016100d5565b61011260025481565b6040519081526020016100d5565b61011260035481565b6100ab61013736600461127e565b610451565b336001600160a01b037f000000000000000000000000000000000000000000000000000000000000000016146101855760405163c6829f8360e01b815260040160405180910390fd5b610190838383610465565b60405183907f85e1543bf2f84fe80c6badbce3648c8539ad1df4d2b3d822938ca0538be727e690600090a2505050565b6101c86104bc565b6102096040805160e0810190915280600081526020016000815260200160008152602001606081526020016060815260200160608152602001606081525090565b6102506000808e8e8080601f016020809104026020016040519081016040528093929190818152602001838380828437600092019190915250879594939250506105119050565b602081018a6002811115610266576102666112a7565b90816002811115610279576102796112a7565b8152505088888080601f01602080910402602001604051908101604052809392919081815260200183838082843760009201919091525050505060808201526102cc6102c587896112e0565b829061058f565b6102e06102d9858761136c565b82906105b9565b6102f66102ec826105e3565b84846002546108bb565b600355505050505050505050505050565b60048054610314906113d3565b80601f0160208091040260200160405190810160405280929190818152602001828054610340906113d3565b801561038d5780601f106103625761010080835404028352916020019161038d565b820191906000526020600020905b81548152906001019060200180831161037057829003601f168201915b505050505081565b60058054610314906113d3565b6001546001600160a01b031633146103fa5760405162461bcd60e51b815260206004820152601660248201527526bab9ba10313290383937b837b9b2b21037bbb732b960511b60448201526064015b60405180910390fd5b60008054336001600160a01b0319808316821784556001805490911690556040516001600160a01b0390921692909183917f8be0079c531659141344cd1fd0a4f28419497f9722a3daafe3b4186f6b6457e091a350565b6104596104bc565b6104628161098d565b50565b6004610471838261145b565b50600561047e828261145b565b50600061048a8361151a565b905060018190036104b6576000848152600660205260409020546104b6906001600160a01b0316610a36565b50505050565b6000546001600160a01b0316331461050f5760405162461bcd60e51b815260206004820152601660248201527527b7363c9031b0b63630b1363290313c9037bbb732b960511b60448201526064016103f1565b565b8051600003610533576040516322ce3edd60e01b815260040160405180910390fd5b83836002811115610546576105466112a7565b90816002811115610559576105596112a7565b9052506040840182801561056f5761056f6112a7565b9081801561057f5761057f6112a7565b9052506060909301929092525050565b80516000036105b15760405163fe936cb760e01b815260040160405180910390fd5b60a090910152565b80516000036105db5760405163fe936cb760e01b815260040160405180910390fd5b60c090910152565b606060006105f2610100610a93565b905061062b6040518060400160405280600c81526020016b31b7b232a637b1b0ba34b7b760a11b81525082610ab490919063ffffffff16565b8251610649906002811115610642576106426112a7565b8290610ad2565b6040805180820190915260088152676c616e677561676560c01b6020820152610673908290610ab4565b604083015161068a908015610642576106426112a7565b604080518082019091526006815265736f7572636560d01b60208201526106b2908290610ab4565b60608301516106c2908290610ab4565b60a08301515115610756576040805180820190915260048152636172677360e01b60208201526106f3908290610ab4565b6106fc81610b0f565b60005b8360a001515181101561074c5761073c8460a0015182815181106107255761072561153e565b602002602001015183610ab490919063ffffffff16565b6107458161156a565b90506106ff565b5061075681610b33565b6080830151511561081a57600083602001516002811115610779576107796112a7565b036107975760405163a80d31f760e01b815260040160405180910390fd5b60408051808201909152600f81526e39b2b1b932ba39a637b1b0ba34b7b760891b60208201526107c8908290610ab4565b6107e183602001516002811115610642576106426112a7565b6040805180820190915260078152667365637265747360c81b602082015261080a908290610ab4565b608083015161081a908290610b51565b60c083015151156108b35760408051808201909152600981526862797465734172677360b81b6020820152610850908290610ab4565b61085981610b0f565b60005b8360c00151518110156108a9576108998460c0015182815181106108825761088261153e565b602002602001015183610b5190919063ffffffff16565b6108a28161156a565b905061085c565b506108b381610b33565b515192915050565b6000807f00000000000000000000000000000000000000000000000000000000000000006001600160a01b031663461d27628688600188886040518663ffffffff1660e01b8152600401610913959493929190611583565b6020604051808303816000875af1158015610932573d6000803e3d6000fd5b505050506040513d601f19601f8201168201806040525081019061095691906115cc565b60405190915081907f1131472297a800fee664d1d89cfa8f7676ff07189ecc53f80bbb5f4969099db890600090a295945050505050565b336001600160a01b038216036109e55760405162461bcd60e51b815260206004820152601760248201527f43616e6e6f74207472616e7366657220746f2073656c6600000000000000000060448201526064016103f1565b600180546001600160a01b0319166001600160a01b0383811691821790925560008054604051929316917fed8889f560326eb138920d842192f0eb3dd22b4f139c87a2c57538e05bae12789190a350565b604051638856a42b60e01b81526001600160a01b0382166004820181905290638856a42b90602401600060405180830381600087803b158015610a7857600080fd5b505af1158015610a8c573d6000803e3d6000fd5b5050505050565b610a9b610f06565b8051610aa79083610b5e565b5060006020820152919050565b610ac18260038351610bd8565b8151610acd9082610cf1565b505050565b8151610adf9060c2610d19565b50610b0b8282604051602001610af791815260200190565b604051602081830303815290604052610b51565b5050565b610b1a816004610d82565b600181602001818151610b2d91906115e5565b90525050565b610b3e816007610d82565b600181602001818151610b2d91906115f8565b610ac18260028351610bd8565b604080518082019091526060815260006020820152610b7e60208361160b565b15610ba657610b8e60208361160b565b610b999060206115f8565b610ba390836115e5565b91505b602080840183905260405180855260008152908184010181811015610bca57600080fd5b604052508290505b92915050565b6017816001600160401b031611610bfe5782516104b69060e0600585901b168317610d19565b60ff816001600160401b031611610c3e578251610c26906018611fe0600586901b1617610d19565b5082516104b6906001600160401b0383166001610d99565b61ffff816001600160401b031611610c7f578251610c67906019611fe0600586901b1617610d19565b5082516104b6906001600160401b0383166002610d99565b63ffffffff816001600160401b031611610cc2578251610caa90601a611fe0600586901b1617610d19565b5082516104b6906001600160401b0383166004610d99565b8251610cd990601b611fe0600586901b1617610d19565b5082516104b6906001600160401b0383166008610d99565b604080518082019091526060815260006020820152610d1283838451610e1e565b9392505050565b6040805180820190915260608152600060208201528251516000610d3e8260016115e5565b905084602001518210610d5f57610d5f85610d5a83600261162d565b610eef565b8451602083820101858153508051821115610d78578181525b5093949350505050565b8151610acd90601f611fe0600585901b1617610d19565b6040805180820190915260608152600060208201528351516000610dbd82856115e5565b90508560200151811115610dda57610dda86610d5a83600261162d565b60006001610dea86610100611728565b610df491906115f8565b90508651828101878319825116178152508051831115610e12578281525b50959695505050505050565b6040805180820190915260608152600060208201528251821115610e4157600080fd5b8351516000610e5084836115e5565b90508560200151811115610e6d57610e6d86610d5a83600261162d565b855180518382016020019160009180851115610e87578482525b505050602086015b60208610610ec75780518252610ea66020836115e5565b9150610eb36020826115e5565b9050610ec06020876115f8565b9550610e8f565b51815160001960208890036101000a0190811690199190911617905250849150509392505050565b8151610efb8383610b5e565b506104b68382610cf1565b6040518060400160405280610f2e604051806040016040528060608152602001600081525090565b8152602001600081525090565b634e487b7160e01b600052604160045260246000fd5b604051601f8201601f191681016001600160401b0381118282101715610f7957610f79610f3b565b604052919050565b60006001600160401b03831115610f9a57610f9a610f3b565b610fad601f8401601f1916602001610f51565b9050828152838383011115610fc157600080fd5b828260208301376000602084830101529392505050565b600082601f830112610fe957600080fd5b610d1283833560208501610f81565b60008060006060848603121561100d57600080fd5b8335925060208401356001600160401b038082111561102b57600080fd5b61103787838801610fd8565b9350604086013591508082111561104d57600080fd5b5061105a86828701610fd8565b9150509250925092565b60008083601f84011261107657600080fd5b5081356001600160401b0381111561108d57600080fd5b6020830191508360208285010111156110a557600080fd5b9250929050565b8035600381106110bb57600080fd5b919050565b60008083601f8401126110d257600080fd5b5081356001600160401b038111156110e957600080fd5b6020830191508360208260051b85010111156110a557600080fd5b80356001600160401b03811681146110bb57600080fd5b803563ffffffff811681146110bb57600080fd5b600080600080600080600080600080600060e08c8e03121561115057600080fd5b6001600160401b03808d35111561116657600080fd5b6111738e8e358f01611064565b909c509a5061118460208e016110ac565b99508060408e0135111561119757600080fd5b6111a78e60408f01358f01611064565b909950975060608d01358110156111bd57600080fd5b6111cd8e60608f01358f016110c0565b909750955060808d01358110156111e357600080fd5b506111f48d60808e01358e016110c0565b909450925061120560a08d01611104565b915061121360c08d0161111b565b90509295989b509295989b9093969950565b6000815180845260005b8181101561124b5760208185018101518683018201520161122f565b506000602082860101526020601f19601f83011685010191505092915050565b602081526000610d126020830184611225565b60006020828403121561129057600080fd5b81356001600160a01b0381168114610d1257600080fd5b634e487b7160e01b600052602160045260246000fd5b60006001600160401b038211156112d6576112d6610f3b565b5060051b60200190565b60006112f36112ee846112bd565b610f51565b80848252602080830192508560051b85013681111561131157600080fd5b855b818110156113605780356001600160401b038111156113325760008081fd5b870136601f8201126113445760008081fd5b611352368235868401610f81565b865250938201938201611313565b50919695505050505050565b600061137a6112ee846112bd565b80848252602080830192508560051b85013681111561139857600080fd5b855b818110156113605780356001600160401b038111156113b95760008081fd5b6113c536828a01610fd8565b86525093820193820161139a565b600181811c908216806113e757607f821691505b60208210810361140757634e487b7160e01b600052602260045260246000fd5b50919050565b601f821115610acd57600081815260208120601f850160051c810160208610156114345750805b601f850160051c820191505b8181101561145357828155600101611440565b505050505050565b81516001600160401b0381111561147457611474610f3b565b6114888161148284546113d3565b8461140d565b602080601f8311600181146114bd57600084156114a55750858301515b600019600386901b1c1916600185901b178555611453565b600085815260208120601f198616915b828110156114ec578886015182559484019460019091019084016114cd565b508582101561150a5787850151600019600388901b60f8161c191681555b5050505050600190811b01905550565b805160208083015191908110156114075760001960209190910360031b1b16919050565b634e487b7160e01b600052603260045260246000fd5b634e487b7160e01b600052601160045260246000fd5b60006001820161157c5761157c611554565b5060010190565b6001600160401b038616815260a0602082015260006115a560a0830187611225565b61ffff9590951660408301525063ffffffff92909216606083015260809091015292915050565b6000602082840312156115de57600080fd5b5051919050565b80820180821115610bd257610bd2611554565b81810381811115610bd257610bd2611554565b60008261162857634e487b7160e01b600052601260045260246000fd5b500690565b8082028115828204841417610bd257610bd2611554565b600181815b8085111561167f57816000190482111561166557611665611554565b8085161561167257918102915b93841c9390800290611649565b509250929050565b60008261169657506001610bd2565b816116a357506000610bd2565b81600181146116b957600281146116c3576116df565b6001915050610bd2565b60ff8411156116d4576116d4611554565b50506001821b610bd2565b5060208310610133831016604e8410600b8410161715611702575081810a610bd2565b61170c8383611644565b806000190482111561172057611720611554565b029392505050565b6000610d12838361168756fea2646970667358221220973d893c2c4118ba2d8b478f6f74499ace2102ed3e256ffe2044cbf891743b1f64736f6c63430008140033",
  "linkReferences": {},
  "deployedLinkReferences": {}
}