{
  "_format": "hh-sol-artifact-1",
  "contractName": "Token",
  "sourceName": "contracts/k3ys/Token.sol",
  "abi": [
    {
      "inputs": [],
      "stateMutability": "nonpayable",
      "type": "constructor"
    },
    {
      "inputs": [
        {
          "internalType": "address",
          "name": "to",
          "type": "address"
        },
        {
          "internalType": "address",
          "name": "verfier",
          "type": "address"
        },
        {
          "internalType": "bytes32[]",
          "name": "pars",
          "type": "bytes32[]"
        }
      ],
      "name": "ConditionNotMet",
      "type": "error"
    },
    {
      "inputs": [
        {
          "internalType": "address",
          "name": "sender",
          "type": "address"
        },
        {
          "internalType": "uint256",
          "name": "tokenId",
          "type": "uint256"
        },
        {
          "internalType": "address",
          "name": "owner",
          "type": "address"
        }
      ],
      "name": "ERC721IncorrectOwner",
      "type": "error"
    },
    {
      "inputs": [
        {
          "internalType": "address",
          "name": "operator",
          "type": "address"
        },
        {
          "internalType": "uint256",
          "name": "tokenId",
          "type": "uint256"
        }
      ],
      "name": "ERC721InsufficientApproval",
      "type": "error"
    },
    {
      "inputs": [
        {
          "internalType": "address",
          "name": "approver",
          "type": "address"
        }
      ],
      "name": "ERC721InvalidApprover",
      "type": "error"
    },
    {
      "inputs": [
        {
          "internalType": "address",
          "name": "operator",
          "type": "address"
        }
      ],
      "name": "ERC721InvalidOperator",
      "type": "error"
    },
    {
      "inputs": [
        {
          "internalType": "address",
          "name": "owner",
          "type": "address"
        }
      ],
      "name": "ERC721InvalidOwner",
      "type": "error"
    },
    {
      "inputs": [
        {
          "internalType": "address",
          "name": "receiver",
          "type": "address"
        }
      ],
      "name": "ERC721InvalidReceiver",
      "type": "error"
    },
    {
      "inputs": [
        {
          "internalType": "address",
          "name": "sender",
          "type": "address"
        }
      ],
      "name": "ERC721InvalidSender",
      "type": "error"
    },
    {
      "inputs": [
        {
          "internalType": "uint256",
          "name": "tokenId",
          "type": "uint256"
        }
      ],
      "name": "ERC721NonexistentToken",
      "type": "error"
    },
    {
      "inputs": [],
      "name": "InvalidInitialization",
      "type": "error"
    },
    {
      "inputs": [],
      "name": "NonTransferrable",
      "type": "error"
    },
    {
      "inputs": [],
      "name": "NotInitializing",
      "type": "error"
    },
    {
      "inputs": [],
      "name": "OnlyMintAllowed",
      "type": "error"
    },
    {
      "inputs": [],
      "name": "OnlyOracle",
      "type": "error"
    },
    {
      "inputs": [
        {
          "internalType": "address",
          "name": "owner",
          "type": "address"
        }
      ],
      "name": "OwnableInvalidOwner",
      "type": "error"
    },
    {
      "inputs": [
        {
          "internalType": "address",
          "name": "account",
          "type": "address"
        }
      ],
      "name": "OwnableUnauthorizedAccount",
      "type": "error"
    },
    {
      "anonymous": false,
      "inputs": [
        {
          "indexed": true,
          "internalType": "address",
          "name": "owner",
          "type": "address"
        },
        {
          "indexed": true,
          "internalType": "address",
          "name": "approved",
          "type": "address"
        },
        {
          "indexed": true,
          "internalType": "uint256",
          "name": "tokenId",
          "type": "uint256"
        }
      ],
      "name": "Approval",
      "type": "event"
    },
    {
      "anonymous": false,
      "inputs": [
        {
          "indexed": true,
          "internalType": "address",
          "name": "owner",
          "type": "address"
        },
        {
          "indexed": true,
          "internalType": "address",
          "name": "operator",
          "type": "address"
        },
        {
          "indexed": false,
          "internalType": "bool",
          "name": "approved",
          "type": "bool"
        }
      ],
      "name": "ApprovalForAll",
      "type": "event"
    },
    {
      "anonymous": false,
      "inputs": [
        {
          "indexed": false,
          "internalType": "uint256",
          "name": "_fromTokenId",
          "type": "uint256"
        },
        {
          "indexed": false,
          "internalType": "uint256",
          "name": "_toTokenId",
          "type": "uint256"
        }
      ],
      "name": "BatchMetadataUpdate",
      "type": "event"
    },
    {
      "anonymous": false,
      "inputs": [
        {
          "indexed": false,
          "internalType": "uint64",
          "name": "version",
          "type": "uint64"
        }
      ],
      "name": "Initialized",
      "type": "event"
    },
    {
      "anonymous": false,
      "inputs": [
        {
          "indexed": false,
          "internalType": "uint256",
          "name": "_tokenId",
          "type": "uint256"
        }
      ],
      "name": "MetadataUpdate",
      "type": "event"
    },
    {
      "anonymous": false,
      "inputs": [
        {
          "indexed": true,
          "internalType": "address",
          "name": "previousOwner",
          "type": "address"
        },
        {
          "indexed": true,
          "internalType": "address",
          "name": "newOwner",
          "type": "address"
        }
      ],
      "name": "OwnershipTransferred",
      "type": "event"
    },
    {
      "anonymous": false,
      "inputs": [
        {
          "indexed": true,
          "internalType": "address",
          "name": "from",
          "type": "address"
        },
        {
          "indexed": true,
          "internalType": "address",
          "name": "to",
          "type": "address"
        },
        {
          "indexed": true,
          "internalType": "uint256",
          "name": "tokenId",
          "type": "uint256"
        }
      ],
      "name": "Transfer",
      "type": "event"
    },
    {
      "inputs": [
        {
          "internalType": "address",
          "name": "to",
          "type": "address"
        },
        {
          "internalType": "uint256",
          "name": "tokenId",
          "type": "uint256"
        }
      ],
      "name": "approve",
      "outputs": [],
      "stateMutability": "nonpayable",
      "type": "function"
    },
    {
      "inputs": [
        {
          "internalType": "address",
          "name": "owner",
          "type": "address"
        }
      ],
      "name": "balanceOf",
      "outputs": [
        {
          "internalType": "uint256",
          "name": "",
          "type": "uint256"
        }
      ],
      "stateMutability": "view",
      "type": "function"
    },
    {
      "inputs": [
        {
          "internalType": "uint256",
          "name": "tokenId",
          "type": "uint256"
        }
      ],
      "name": "getApproved",
      "outputs": [
        {
          "internalType": "address",
          "name": "",
          "type": "address"
        }
      ],
      "stateMutability": "view",
      "type": "function"
    },
    {
      "inputs": [
        {
          "internalType": "string",
          "name": "__name",
          "type": "string"
        },
        {
          "internalType": "string",
          "name": "__symbol",
          "type": "string"
        },
        {
          "internalType": "address",
          "name": "owner",
          "type": "address"
        },
        {
          "internalType": "address[]",
          "name": "_verifiers",
          "type": "address[]"
        },
        {
          "internalType": "bytes32[][]",
          "name": "_parsArray",
          "type": "bytes32[][]"
        },
        {
          "internalType": "address",
          "name": "_oracle",
          "type": "address"
        }
      ],
      "name": "init",
      "outputs": [],
      "stateMutability": "nonpayable",
      "type": "function"
    },
    {
      "inputs": [
        {
          "internalType": "address",
          "name": "owner",
          "type": "address"
        },
        {
          "internalType": "address",
          "name": "operator",
          "type": "address"
        }
      ],
      "name": "isApprovedForAll",
      "outputs": [
        {
          "internalType": "bool",
          "name": "",
          "type": "bool"
        }
      ],
      "stateMutability": "view",
      "type": "function"
    },
    {
      "inputs": [
        {
          "internalType": "address",
          "name": "to",
          "type": "address"
        }
      ],
      "name": "mintConditions",
      "outputs": [],
      "stateMutability": "nonpayable",
      "type": "function"
    },
    {
      "inputs": [
        {
          "internalType": "address",
          "name": "to",
          "type": "address"
        }
      ],
      "name": "mintOracle",
      "outputs": [],
      "stateMutability": "nonpayable",
      "type": "function"
    },
    {
      "inputs": [],
      "name": "name",
      "outputs": [
        {
          "internalType": "string",
          "name": "",
          "type": "string"
        }
      ],
      "stateMutability": "view",
      "type": "function"
    },
    {
      "inputs": [],
      "name": "owner",
      "outputs": [
        {
          "internalType": "address",
          "name": "",
          "type": "address"
        }
      ],
      "stateMutability": "view",
      "type": "function"
    },
    {
      "inputs": [
        {
          "internalType": "uint256",
          "name": "tokenId",
          "type": "uint256"
        }
      ],
      "name": "ownerOf",
      "outputs": [
        {
          "internalType": "address",
          "name": "",
          "type": "address"
        }
      ],
      "stateMutability": "view",
      "type": "function"
    },
    {
      "inputs": [],
      "name": "renounceOwnership",
      "outputs": [],
      "stateMutability": "nonpayable",
      "type": "function"
    },
    {
      "inputs": [
        {
          "internalType": "address",
          "name": "from",
          "type": "address"
        },
        {
          "internalType": "address",
          "name": "to",
          "type": "address"
        },
        {
          "internalType": "uint256",
          "name": "tokenId",
          "type": "uint256"
        }
      ],
      "name": "safeTransferFrom",
      "outputs": [],
      "stateMutability": "nonpayable",
      "type": "function"
    },
    {
      "inputs": [
        {
          "internalType": "address",
          "name": "from",
          "type": "address"
        },
        {
          "internalType": "address",
          "name": "to",
          "type": "address"
        },
        {
          "internalType": "uint256",
          "name": "tokenId",
          "type": "uint256"
        },
        {
          "internalType": "bytes",
          "name": "data",
          "type": "bytes"
        }
      ],
      "name": "safeTransferFrom",
      "outputs": [],
      "stateMutability": "nonpayable",
      "type": "function"
    },
    {
      "inputs": [
        {
          "internalType": "address",
          "name": "operator",
          "type": "address"
        },
        {
          "internalType": "bool",
          "name": "approved",
          "type": "bool"
        }
      ],
      "name": "setApprovalForAll",
      "outputs": [],
      "stateMutability": "nonpayable",
      "type": "function"
    },
    {
      "inputs": [
        {
          "internalType": "bytes4",
          "name": "interfaceId",
          "type": "bytes4"
        }
      ],
      "name": "supportsInterface",
      "outputs": [
        {
          "internalType": "bool",
          "name": "",
          "type": "bool"
        }
      ],
      "stateMutability": "view",
      "type": "function"
    },
    {
      "inputs": [],
      "name": "symbol",
      "outputs": [
        {
          "internalType": "string",
          "name": "",
          "type": "string"
        }
      ],
      "stateMutability": "view",
      "type": "function"
    },
    {
      "inputs": [
        {
          "internalType": "uint256",
          "name": "tokenId",
          "type": "uint256"
        }
      ],
      "name": "tokenURI",
      "outputs": [
        {
          "internalType": "string",
          "name": "",
          "type": "string"
        }
      ],
      "stateMutability": "view",
      "type": "function"
    },
    {
      "inputs": [
        {
          "internalType": "address",
          "name": "from",
          "type": "address"
        },
        {
          "internalType": "address",
          "name": "to",
          "type": "address"
        },
        {
          "internalType": "uint256",
          "name": "tokenId",
          "type": "uint256"
        }
      ],
      "name": "transferFrom",
      "outputs": [],
      "stateMutability": "nonpayable",
      "type": "function"
    },
    {
      "inputs": [
        {
          "internalType": "address",
          "name": "newOwner",
          "type": "address"
        }
      ],
      "name": "transferOwnership",
      "outputs": [],
      "stateMutability": "nonpayable",
      "type": "function"
    }
  ],
  "bytecode": "0x60806040523480156200001157600080fd5b5060408051602080820183526000808352835191820190935282815233926200003b83826200018a565b5060016200004a82826200018a565b5050506001600160a01b0381166200007c57604051631e4fbdf760e01b81526000600482015260240160405180910390fd5b620000878162000093565b50600060085562000256565b600780546001600160a01b038381166001600160a01b0319831681179093556040519116919082907f8be0079c531659141344cd1fd0a4f28419497f9722a3daafe3b4186f6b6457e090600090a35050565b634e487b7160e01b600052604160045260246000fd5b600181811c908216806200011057607f821691505b6020821081036200013157634e487b7160e01b600052602260045260246000fd5b50919050565b601f8211156200018557600081815260208120601f850160051c81016020861015620001605750805b601f850160051c820191505b8181101562000181578281556001016200016c565b5050505b505050565b81516001600160401b03811115620001a657620001a6620000e5565b620001be81620001b78454620000fb565b8462000137565b602080601f831160018114620001f65760008415620001dd5750858301515b600019600386901b1c1916600185901b17855562000181565b600085815260208120601f198616915b82811015620002275788860151825594840194600190910190840162000206565b5085821015620002465787850151600019600388901b60f8161c191681555b5050505050600190811b01905550565b611b1480620002666000396000f3fe608060405234801561001057600080fd5b50600436106101215760003560e01c8063715018a6116100ad578063a22cb46511610071578063a22cb46514610257578063b88d4fde1461026a578063c87b56dd1461027d578063e985e9c514610290578063f2fde38b146102a357600080fd5b8063715018a61461021057806387ec07d9146102185780638856a42b1461022b5780638da5cb5b1461023e57806395d89b411461024f57600080fd5b806323b872dd116100f457806323b872dd146101a357806342842e0e146101b65780636352211e146101c95780636381e62f146101dc57806370a08231146101ef57600080fd5b806301ffc9a71461012657806306fdde031461014e578063081812fc14610163578063095ea7b31461018e575b600080fd5b6101396101343660046112cb565b6102b6565b60405190151581526020015b60405180910390f35b6101566102e1565b6040516101459190611338565b61017661017136600461134b565b610373565b6040516001600160a01b039091168152602001610145565b6101a161019c366004611380565b61039c565b005b6101a16101b13660046113aa565b6103ab565b6101a16101c43660046113aa565b6103d3565b6101766101d736600461134b565b6103f3565b6101a16101ea36600461161c565b6103fe565b6102026101fd3660046116e9565b610664565b604051908152602001610145565b6101a16106ac565b6101a16102263660046116e9565b6106c0565b6101a16102393660046116e9565b610847565b6007546001600160a01b0316610176565b610156610891565b6101a1610265366004611712565b6108a0565b6101a1610278366004611749565b6108ab565b61015661028b36600461134b565b6108c2565b61013961029e3660046117c5565b6109d3565b6101a16102b13660046116e9565b610a01565b60006001600160e01b03198216632483248360e11b14806102db57506102db82610a3c565b92915050565b6060600080546102f0906117f8565b80601f016020809104026020016040519081016040528092919081815260200182805461031c906117f8565b80156103695780601f1061033e57610100808354040283529160200191610369565b820191906000526020600020905b81548152906001019060200180831161034c57829003601f168201915b5050505050905090565b600061037e82610a8c565b506000828152600460205260409020546001600160a01b03166102db565b6103a7828233610ac5565b5050565b60405163bf9e1a7560e01b815260040160405180910390fd5b60405180910390fd5b50505050565b6103ee838383604051806020016040528060008152506108ab565b505050565b60006102db82610a8c565b7ff0c57e16840df040f15088dc2f81fe391c3923bec73e23a9662efc9c229c6a008054600160401b810460ff16159067ffffffffffffffff166000811580156104445750825b905060008267ffffffffffffffff1660011480156104615750303b155b90508115801561046f575080155b1561048d5760405163f92ee8a960e01b815260040160405180910390fd5b845467ffffffffffffffff1916600117855583156104b757845460ff60401b1916600160401b1785555b600a80546001600160a01b0319166001600160a01b03881617905560006104de8c82611880565b5060016104eb8b82611880565b506104f589610bcb565b60005b88518160ff16101561061057604080518082019091526000815260606020820152898260ff168151811061052e5761052e611940565b60209081029190910101516001600160a01b031681528851899060ff841690811061055b5761055b611940565b6020908102919091018101518282019081526009805460018101825560009190915283517f6e1540171b6c0c960b71a7020d9f60077f6af931a8bbf590da0223dacf75c7af600290920291820180546001600160a01b0319166001600160a01b039092169190911781559151805185946105f9937f6e1540171b6c0c960b71a7020d9f60077f6af931a8bbf590da0223dacf75c7b001920190611255565b5050505080806106089061196c565b9150506104f8565b50831561065757845460ff60401b19168555604051600181527fc7f505b2f371ae2175ee4913f4499e1f2633a7b5936321eed1cdaeb6115181d29060200160405180910390a15b5050505050505050505050565b60006001600160a01b038216610690576040516322718ad960e21b8152600060048201526024016103c4565b506001600160a01b031660009081526003602052604090205490565b6106b4610c1d565b6106be6000610bcb565b565b60005b60095460ff8216101561082457600060098260ff16815481106106e8576106e8611940565b6000918252602091829020604080518082018252600290930290910180546001600160a01b0316835260018101805483518187028101870190945280845293949193858301939283018282801561075e57602002820191906000526020600020905b81548152602001906001019080831161074a575b5050505050815250509050600081600001516001600160a01b031663b76a0df48584602001516040518363ffffffff1660e01b81526004016107a19291906119c6565b6020604051808303816000875af11580156107c0573d6000803e3d6000fd5b505050506040513d601f19601f820116820180604052508101906107e491906119ea565b90508061080f57815160208301516040516336492c7b60e01b81526103c49287929091600401611a07565b5050808061081c9061196c565b9150506106c3565b506008805461084491839190600061083b83611a3c565b91905055610c4a565b50565b600a546001600160a01b0316336001600160a01b03161461087b576040516380fee10560e01b815260040160405180910390fd5b6008805461084491839190600061083b83611a3c565b6060600180546102f0906117f8565b6103a7338383610c64565b6108b68484846103ab565b6103cd84848484610d03565b60606108cd82610a8c565b50600082815260066020526040812080546108e7906117f8565b80601f0160208091040260200160405190810160405280929190818152602001828054610913906117f8565b80156109605780601f1061093557610100808354040283529160200191610960565b820191906000526020600020905b81548152906001019060200180831161094357829003601f168201915b50505050509050600061097e60408051602081019091526000815290565b90508051600003610990575092915050565b8151156109c25780826040516020016109aa929190611a55565b60405160208183030381529060405292505050919050565b6109cb84610e2c565b949350505050565b6001600160a01b03918216600090815260056020908152604080832093909416825291909152205460ff1690565b610a09610c1d565b6001600160a01b038116610a3357604051631e4fbdf760e01b8152600060048201526024016103c4565b61084481610bcb565b60006001600160e01b031982166380ac58cd60e01b1480610a6d57506001600160e01b03198216635b5e139f60e01b145b806102db57506301ffc9a760e01b6001600160e01b03198316146102db565b6000818152600260205260408120546001600160a01b0316806102db57604051637e27328960e01b8152600481018490526024016103c4565b6103ee8383836001610ea1565b6000828152600260205260408120546001600160a01b0390811690831615610aff57610aff818486610fa7565b6001600160a01b03811615610b3d57610b1c600085600080610ea1565b6001600160a01b038116600090815260036020526040902080546000190190555b6001600160a01b03851615610b6c576001600160a01b0385166000908152600360205260409020805460010190555b60008481526002602052604080822080546001600160a01b0319166001600160a01b0389811691821790925591518793918516917fddf252ad1be2c89b69c2b068fc378daa952ba7f163c4a11628f55a4df523b3ef91a4949350505050565b600780546001600160a01b038381166001600160a01b0319831681179093556040519116919082907f8be0079c531659141344cd1fd0a4f28419497f9722a3daafe3b4186f6b6457e090600090a35050565b6007546001600160a01b031633146106be5760405163118cdaa760e01b81523360048201526024016103c4565b6103a782826040518060200160405280600081525061100b565b6001600160a01b038216610c9657604051630b61174360e31b81526001600160a01b03831660048201526024016103c4565b6001600160a01b03838116600081815260056020908152604080832094871680845294825291829020805460ff191686151590811790915591519182527f17307eab39ab6107e8899845ad3d59bd9653f200f220920489ca2b5937696c31910160405180910390a3505050565b6001600160a01b0383163b156103cd57604051630a85bd0160e11b81526001600160a01b0384169063150b7a0290610d45903390889087908790600401611a84565b6020604051808303816000875af1925050508015610d80575060408051601f3d908101601f19168201909252610d7d91810190611ac1565b60015b610de9573d808015610dae576040519150601f19603f3d011682016040523d82523d6000602084013e610db3565b606091505b508051600003610de157604051633250574960e11b81526001600160a01b03851660048201526024016103c4565b805181602001fd5b6001600160e01b03198116630a85bd0160e11b14610e2557604051633250574960e11b81526001600160a01b03851660048201526024016103c4565b5050505050565b6060610e3782610a8c565b506000610e4f60408051602081019091526000815290565b90506000815111610e6f5760405180602001604052806000815250610e9a565b80610e7984611022565b604051602001610e8a929190611a55565b6040516020818303038152906040525b9392505050565b8080610eb557506001600160a01b03821615155b15610f77576000610ec584610a8c565b90506001600160a01b03831615801590610ef15750826001600160a01b0316816001600160a01b031614155b8015610f045750610f0281846109d3565b155b15610f2d5760405163a9fbf51f60e01b81526001600160a01b03841660048201526024016103c4565b8115610f755783856001600160a01b0316826001600160a01b03167f8c5be1e5ebec7d5bd14f71427d1e84f3dd0314c0f7b2291e5b200ac8c7c3b92560405160405180910390a45b505b5050600090815260046020526040902080546001600160a01b0319166001600160a01b0392909216919091179055565b610fb28383836110b5565b6103ee576001600160a01b038316610fe057604051637e27328960e01b8152600481018290526024016103c4565b60405163177e802f60e01b81526001600160a01b0383166004820152602481018290526044016103c4565b6110158383611118565b6103ee6000848484610d03565b6060600061102f8361117d565b600101905060008167ffffffffffffffff81111561104f5761104f6113e6565b6040519080825280601f01601f191660200182016040528015611079576020820181803683370190505b5090508181016020015b600019016f181899199a1a9b1b9c1cb0b131b232b360811b600a86061a8153600a850494508461108357509392505050565b60006001600160a01b038316158015906109cb5750826001600160a01b0316846001600160a01b031614806110ef57506110ef84846109d3565b806109cb5750506000908152600460205260409020546001600160a01b03908116911614919050565b6001600160a01b03821661114257604051633250574960e11b8152600060048201526024016103c4565b600061115083836000610ad2565b90506001600160a01b038116156103ee576040516339e3563760e11b8152600060048201526024016103c4565b60008072184f03e93ff9f4daa797ed6e38ed64bf6a1f0160401b83106111bc5772184f03e93ff9f4daa797ed6e38ed64bf6a1f0160401b830492506040015b6d04ee2d6d415b85acef810000000083106111e8576d04ee2d6d415b85acef8100000000830492506020015b662386f26fc10000831061120657662386f26fc10000830492506010015b6305f5e100831061121e576305f5e100830492506008015b612710831061123257612710830492506004015b60648310611244576064830492506002015b600a83106102db5760010192915050565b828054828255906000526020600020908101928215611290579160200282015b82811115611290578251825591602001919060010190611275565b5061129c9291506112a0565b5090565b5b8082111561129c57600081556001016112a1565b6001600160e01b03198116811461084457600080fd5b6000602082840312156112dd57600080fd5b8135610e9a816112b5565b60005b838110156113035781810151838201526020016112eb565b50506000910152565b600081518084526113248160208601602086016112e8565b601f01601f19169290920160200192915050565b602081526000610e9a602083018461130c565b60006020828403121561135d57600080fd5b5035919050565b80356001600160a01b038116811461137b57600080fd5b919050565b6000806040838503121561139357600080fd5b61139c83611364565b946020939093013593505050565b6000806000606084860312156113bf57600080fd5b6113c884611364565b92506113d660208501611364565b9150604084013590509250925092565b634e487b7160e01b600052604160045260246000fd5b604051601f8201601f1916810167ffffffffffffffff81118282101715611425576114256113e6565b604052919050565b600067ffffffffffffffff831115611447576114476113e6565b61145a601f8401601f19166020016113fc565b905082815283838301111561146e57600080fd5b828260208301376000602084830101529392505050565b600082601f83011261149657600080fd5b610e9a8383356020850161142d565b600067ffffffffffffffff8211156114bf576114bf6113e6565b5060051b60200190565b600082601f8301126114da57600080fd5b813560206114ef6114ea836114a5565b6113fc565b82815260059290921b8401810191818101908684111561150e57600080fd5b8286015b848110156115305761152381611364565b8352918301918301611512565b509695505050505050565b600082601f83011261154c57600080fd5b8135602061155c6114ea836114a5565b828152600592831b850182019282820191908785111561157b57600080fd5b8387015b8581101561160f57803567ffffffffffffffff81111561159f5760008081fd5b8801603f81018a136115b15760008081fd5b8581013560406115c36114ea836114a5565b82815291851b8301810191888101908d8411156115e05760008081fd5b938201935b838510156115fe578435825293890193908901906115e5565b88525050509385019350840161157f565b5090979650505050505050565b60008060008060008060c0878903121561163557600080fd5b863567ffffffffffffffff8082111561164d57600080fd5b6116598a838b01611485565b9750602089013591508082111561166f57600080fd5b61167b8a838b01611485565b965061168960408a01611364565b9550606089013591508082111561169f57600080fd5b6116ab8a838b016114c9565b945060808901359150808211156116c157600080fd5b506116ce89828a0161153b565b9250506116dd60a08801611364565b90509295509295509295565b6000602082840312156116fb57600080fd5b610e9a82611364565b801515811461084457600080fd5b6000806040838503121561172557600080fd5b61172e83611364565b9150602083013561173e81611704565b809150509250929050565b6000806000806080858703121561175f57600080fd5b61176885611364565b935061177660208601611364565b925060408501359150606085013567ffffffffffffffff81111561179957600080fd5b8501601f810187136117aa57600080fd5b6117b98782356020840161142d565b91505092959194509250565b600080604083850312156117d857600080fd5b6117e183611364565b91506117ef60208401611364565b90509250929050565b600181811c9082168061180c57607f821691505b60208210810361182c57634e487b7160e01b600052602260045260246000fd5b50919050565b601f8211156103ee57600081815260208120601f850160051c810160208610156118595750805b601f850160051c820191505b8181101561187857828155600101611865565b505050505050565b815167ffffffffffffffff81111561189a5761189a6113e6565b6118ae816118a884546117f8565b84611832565b602080601f8311600181146118e357600084156118cb5750858301515b600019600386901b1c1916600185901b178555611878565b600085815260208120601f198616915b82811015611912578886015182559484019460019091019084016118f3565b50858210156119305787850151600019600388901b60f8161c191681555b5050505050600190811b01905550565b634e487b7160e01b600052603260045260246000fd5b634e487b7160e01b600052601160045260246000fd5b600060ff821660ff810361198257611982611956565b60010192915050565b600081518084526020808501945080840160005b838110156119bb5781518752958201959082019060010161199f565b509495945050505050565b6001600160a01b03831681526040602082018190526000906109cb9083018461198b565b6000602082840312156119fc57600080fd5b8151610e9a81611704565b6001600160a01b03848116825283166020820152606060408201819052600090611a339083018461198b565b95945050505050565b600060018201611a4e57611a4e611956565b5060010190565b60008351611a678184602088016112e8565b835190830190611a7b8183602088016112e8565b01949350505050565b6001600160a01b0385811682528416602082015260408101839052608060608201819052600090611ab79083018461130c565b9695505050505050565b600060208284031215611ad357600080fd5b8151610e9a816112b556fea2646970667358221220ca17504e3e33ed1d974451d1ae37f15c926a83a19f5dcf7e576c6558a2b98e5d64736f6c63430008140033",
  "linkReferences": {},
  "deployedLinkReferences": {}
}