{
  "_format": "hh-sol-artifact-1",
  "contractName": "FunctionsConsumer",
  "sourceName": "contracts/k3ys/FunctionsConsumer.sol",
  "abi": [
    {
      "inputs": [
        {
          "internalType": "address",
          "name": "router",
          "type": "address"
        },
        {
          "internalType": "bytes32",
          "name": "_donId",
          "type": "bytes32"
        }
      ],
      "stateMutability": "nonpayable",
      "type": "constructor"
    },
    {
      "inputs": [
        {
          "internalType": "address",
          "name": "adr",
          "type": "address"
        }
      ],
      "name": "CantMintTwice",
      "type": "error"
    },
    {
      "inputs": [],
      "name": "EmptyArgs",
      "type": "error"
    },
    {
      "inputs": [],
      "name": "EmptySource",
      "type": "error"
    },
    {
      "inputs": [],
      "name": "NoInlineSecrets",
      "type": "error"
    },
    {
      "inputs": [],
      "name": "OnlyRouterCanFulfill",
      "type": "error"
    },
    {
      "anonymous": false,
      "inputs": [
        {
          "indexed": true,
          "internalType": "address",
          "name": "from",
          "type": "address"
        },
        {
          "indexed": true,
          "internalType": "address",
          "name": "to",
          "type": "address"
        }
      ],
      "name": "OwnershipTransferRequested",
      "type": "event"
    },
    {
      "anonymous": false,
      "inputs": [
        {
          "indexed": true,
          "internalType": "address",
          "name": "from",
          "type": "address"
        },
        {
          "indexed": true,
          "internalType": "address",
          "name": "to",
          "type": "address"
        }
      ],
      "name": "OwnershipTransferred",
      "type": "event"
    },
    {
      "anonymous": false,
      "inputs": [
        {
          "indexed": true,
          "internalType": "bytes32",
          "name": "id",
          "type": "bytes32"
        }
      ],
      "name": "RequestFulfilled",
      "type": "event"
    },
    {
      "anonymous": false,
      "inputs": [
        {
          "indexed": true,
          "internalType": "bytes32",
          "name": "id",
          "type": "bytes32"
        }
      ],
      "name": "RequestSent",
      "type": "event"
    },
    {
      "inputs": [],
      "name": "acceptOwnership",
      "outputs": [],
      "stateMutability": "nonpayable",
      "type": "function"
    },
    {
      "inputs": [],
      "name": "donId",
      "outputs": [
        {
          "internalType": "bytes32",
          "name": "",
          "type": "bytes32"
        }
      ],
      "stateMutability": "view",
      "type": "function"
    },
    {
      "inputs": [
        {
          "internalType": "bytes32",
          "name": "requestId",
          "type": "bytes32"
        },
        {
          "internalType": "bytes",
          "name": "response",
          "type": "bytes"
        },
        {
          "internalType": "bytes",
          "name": "err",
          "type": "bytes"
        }
      ],
      "name": "handleOracleFulfillment",
      "outputs": [],
      "stateMutability": "nonpayable",
      "type": "function"
    },
    {
      "inputs": [],
      "name": "owner",
      "outputs": [
        {
          "internalType": "address",
          "name": "",
          "type": "address"
        }
      ],
      "stateMutability": "view",
      "type": "function"
    },
    {
      "inputs": [],
      "name": "s_lastError",
      "outputs": [
        {
          "internalType": "bytes",
          "name": "",
          "type": "bytes"
        }
      ],
      "stateMutability": "view",
      "type": "function"
    },
    {
      "inputs": [],
      "name": "s_lastRequestId",
      "outputs": [
        {
          "internalType": "bytes32",
          "name": "",
          "type": "bytes32"
        }
      ],
      "stateMutability": "view",
      "type": "function"
    },
    {
      "inputs": [],
      "name": "s_lastResponse",
      "outputs": [
        {
          "internalType": "bytes",
          "name": "",
          "type": "bytes"
        }
      ],
      "stateMutability": "view",
      "type": "function"
    },
    {
      "inputs": [
        {
          "internalType": "string",
          "name": "source",
          "type": "string"
        },
        {
          "internalType": "enum FunctionsRequest.Location",
          "name": "secretsLocation",
          "type": "uint8"
        },
        {
          "internalType": "bytes",
          "name": "encryptedSecretsReference",
          "type": "bytes"
        },
        {
          "internalType": "string[]",
          "name": "args",
          "type": "string[]"
        },
        {
          "internalType": "bytes[]",
          "name": "bytesArgs",
          "type": "bytes[]"
        },
        {
          "internalType": "uint64",
          "name": "subscriptionId",
          "type": "uint64"
        },
        {
          "internalType": "uint32",
          "name": "callbackGasLimit",
          "type": "uint32"
        }
      ],
      "name": "sendRequest",
      "outputs": [],
      "stateMutability": "nonpayable",
      "type": "function"
    },
    {
      "inputs": [
        {
          "internalType": "address",
          "name": "to",
          "type": "address"
        }
      ],
      "name": "transferOwnership",
      "outputs": [],
      "stateMutability": "nonpayable",
      "type": "function"
    }
  ],
  "bytecode": "0x60a06040523480156200001157600080fd5b5060405162001a4738038062001a47833981016040819052620000349162000183565b6001600160a01b0382166080523380600081620000985760405162461bcd60e51b815260206004820152601860248201527f43616e6e6f7420736574206f776e657220746f207a65726f000000000000000060448201526064015b60405180910390fd5b600080546001600160a01b0319166001600160a01b0384811691909117909155811615620000cb57620000cb81620000d8565b50505060025550620001bf565b336001600160a01b03821603620001325760405162461bcd60e51b815260206004820152601760248201527f43616e6e6f74207472616e7366657220746f2073656c6600000000000000000060448201526064016200008f565b600180546001600160a01b0319166001600160a01b0383811691821790925560008054604051929316917fed8889f560326eb138920d842192f0eb3dd22b4f139c87a2c57538e05bae12789190a350565b600080604083850312156200019757600080fd5b82516001600160a01b0381168114620001af57600080fd5b6020939093015192949293505050565b608051611865620001e260003960008181610147015261095c01526118656000f3fe608060405234801561001057600080fd5b50600436106100935760003560e01c806379ba50971161006657806379ba5097146100e65780638da5cb5b146100ee5780638dbe7b9d14610109578063b1e2174914610120578063f2fde38b1461012957600080fd5b80630ca7617514610098578063231c1619146100ad5780633944ea3a146100c05780634b0795a8146100de575b600080fd5b6100ab6100a636600461108f565b61013c565b005b6100ab6100bb3660046111c6565b610195565b6100c8610356565b6040516100d59190611302565b60405180910390f35b6100c86103e4565b6100ab6103f1565b6000546040516001600160a01b0390911681526020016100d5565b61011260025481565b6040519081526020016100d5565b61011260035481565b6100ab610137366004611315565b6104a0565b336001600160a01b037f000000000000000000000000000000000000000000000000000000000000000016146101855760405163c6829f8360e01b815260040160405180910390fd5b6101908383836104b4565b505050565b61019d61050b565b6101e66040805161010081019091528060008152602001600081526020016000815260200160608152602001606081526020016060815260200160608152602001606081525090565b61022d6000808e8e8080601f016020809104026020016040519081016040528093929190818152602001838380828437600092019190915250879594939250506105609050565b602081018a60028111156102435761024361133e565b908160028111156102565761025661133e565b8152505088888080601f01602080910402602001604051908101604052809392919081815260200183838082843760009201919091525050505060808201526102a96102a28789611377565b82906105de565b6102bd6102b68587611403565b8290610608565b6102d36102c982610632565b8484600254610957565b6003556000858582816102e8576102e861146a565b90506020028101906102fa9190611480565b610303916114c6565b600354600090815260066020908152604080832080546001600160a01b039095166001600160a01b0319909516851790559282526007905220805460ff1916600117905550505050505050505050505050565b60048054610363906114e4565b80601f016020809104026020016040519081016040528092919081815260200182805461038f906114e4565b80156103dc5780601f106103b1576101008083540402835291602001916103dc565b820191906000526020600020905b8154815290600101906020018083116103bf57829003601f168201915b505050505081565b60058054610363906114e4565b6001546001600160a01b031633146104495760405162461bcd60e51b815260206004820152601660248201527526bab9ba10313290383937b837b9b2b21037bbb732b960511b60448201526064015b60405180910390fd5b60008054336001600160a01b0319808316821784556001805490911690556040516001600160a01b0390921692909183917f8be0079c531659141344cd1fd0a4f28419497f9722a3daafe3b4186f6b6457e091a350565b6104a861050b565b6104b181610a29565b50565b60046104c0838261156c565b5060056104cd828261156c565b5060006104d98361162b565b9050600181900361050557600084815260066020526040902054610505906001600160a01b0316610ad2565b50505050565b6000546001600160a01b0316331461055e5760405162461bcd60e51b815260206004820152601660248201527527b7363c9031b0b63630b1363290313c9037bbb732b960511b6044820152606401610440565b565b8051600003610582576040516322ce3edd60e01b815260040160405180910390fd5b838360028111156105955761059561133e565b908160028111156105a8576105a861133e565b905250604084018280156105be576105be61133e565b908180156105ce576105ce61133e565b9052506060909301929092525050565b80516000036106005760405163fe936cb760e01b815260040160405180910390fd5b60c090910152565b805160000361062a5760405163fe936cb760e01b815260040160405180910390fd5b60e090910152565b60606000610641610100610b2f565b905061067a6040518060400160405280600c81526020016b31b7b232a637b1b0ba34b7b760a11b81525082610b5090919063ffffffff16565b82516106989060028111156106915761069161133e565b8290610b69565b6040805180820190915260088152676c616e677561676560c01b60208201526106c2908290610b50565b60408301516106d99080156106915761069161133e565b604080518082019091526006815265736f7572636560d01b6020820152610701908290610b50565b6060830151610711908290610b50565b60a0830151511561075e5760408051808201909152601081526f726571756573745369676e617475726560801b602082015261074e908290610b50565b60a083015161075e908290610ba6565b60c083015151156107f2576040805180820190915260048152636172677360e01b602082015261078f908290610b50565b61079881610bb3565b60005b8360c00151518110156107e8576107d88460c0015182815181106107c1576107c161146a565b602002602001015183610b5090919063ffffffff16565b6107e181611665565b905061079b565b506107f281610bd7565b608083015151156108b6576000836020015160028111156108155761081561133e565b036108335760405163a80d31f760e01b815260040160405180910390fd5b60408051808201909152600f81526e39b2b1b932ba39a637b1b0ba34b7b760891b6020820152610864908290610b50565b61087d836020015160028111156106915761069161133e565b6040805180820190915260078152667365637265747360c81b60208201526108a6908290610b50565b60808301516108b6908290610ba6565b60e0830151511561094f5760408051808201909152600981526862797465734172677360b81b60208201526108ec908290610b50565b6108f581610bb3565b60005b8360e0015151811015610945576109358460e00151828151811061091e5761091e61146a565b602002602001015183610ba690919063ffffffff16565b61093e81611665565b90506108f8565b5061094f81610bd7565b515192915050565b6000807f00000000000000000000000000000000000000000000000000000000000000006001600160a01b031663461d27628688600188886040518663ffffffff1660e01b81526004016109af95949392919061167e565b6020604051808303816000875af11580156109ce573d6000803e3d6000fd5b505050506040513d601f19601f820116820180604052508101906109f291906116c7565b60405190915081907f1131472297a800fee664d1d89cfa8f7676ff07189ecc53f80bbb5f4969099db890600090a295945050505050565b336001600160a01b03821603610a815760405162461bcd60e51b815260206004820152601760248201527f43616e6e6f74207472616e7366657220746f2073656c660000000000000000006044820152606401610440565b600180546001600160a01b0319166001600160a01b0383811691821790925560008054604051929316917fed8889f560326eb138920d842192f0eb3dd22b4f139c87a2c57538e05bae12789190a350565b604051638856a42b60e01b81526001600160a01b0382166004820181905290638856a42b90602401600060405180830381600087803b158015610b1457600080fd5b505af1158015610b28573d6000803e3d6000fd5b5050505050565b610b37610f9d565b8051610b439083610bf5565b5060006020820152919050565b610b5d8260038351610c6f565b81516101909082610d88565b8151610b769060c2610db0565b50610ba28282604051602001610b8e91815260200190565b604051602081830303815290604052610ba6565b5050565b610b5d8260028351610c6f565b610bbe816004610e19565b600181602001818151610bd191906116e0565b90525050565b610be2816007610e19565b600181602001818151610bd191906116f3565b604080518082019091526060815260006020820152610c15602083611706565b15610c3d57610c25602083611706565b610c309060206116f3565b610c3a90836116e0565b91505b602080840183905260405180855260008152908184010181811015610c6157600080fd5b604052508290505b92915050565b6017816001600160401b031611610c955782516105059060e0600585901b168317610db0565b60ff816001600160401b031611610cd5578251610cbd906018611fe0600586901b1617610db0565b508251610505906001600160401b0383166001610e30565b61ffff816001600160401b031611610d16578251610cfe906019611fe0600586901b1617610db0565b508251610505906001600160401b0383166002610e30565b63ffffffff816001600160401b031611610d59578251610d4190601a611fe0600586901b1617610db0565b508251610505906001600160401b0383166004610e30565b8251610d7090601b611fe0600586901b1617610db0565b508251610505906001600160401b0383166008610e30565b604080518082019091526060815260006020820152610da983838451610eb5565b9392505050565b6040805180820190915260608152600060208201528251516000610dd58260016116e0565b905084602001518210610df657610df685610df1836002611728565b610f86565b8451602083820101858153508051821115610e0f578181525b5093949350505050565b815161019090601f611fe0600585901b1617610db0565b6040805180820190915260608152600060208201528351516000610e5482856116e0565b90508560200151811115610e7157610e7186610df1836002611728565b60006001610e8186610100611823565b610e8b91906116f3565b90508651828101878319825116178152508051831115610ea9578281525b50959695505050505050565b6040805180820190915260608152600060208201528251821115610ed857600080fd5b8351516000610ee784836116e0565b90508560200151811115610f0457610f0486610df1836002611728565b855180518382016020019160009180851115610f1e578482525b505050602086015b60208610610f5e5780518252610f3d6020836116e0565b9150610f4a6020826116e0565b9050610f576020876116f3565b9550610f26565b51815160001960208890036101000a0190811690199190911617905250849150509392505050565b8151610f928383610bf5565b506105058382610d88565b6040518060400160405280610fc5604051806040016040528060608152602001600081525090565b8152602001600081525090565b634e487b7160e01b600052604160045260246000fd5b604051601f8201601f191681016001600160401b038111828210171561101057611010610fd2565b604052919050565b60006001600160401b0383111561103157611031610fd2565b611044601f8401601f1916602001610fe8565b905082815283838301111561105857600080fd5b828260208301376000602084830101529392505050565b600082601f83011261108057600080fd5b610da983833560208501611018565b6000806000606084860312156110a457600080fd5b8335925060208401356001600160401b03808211156110c257600080fd5b6110ce8783880161106f565b935060408601359150808211156110e457600080fd5b506110f18682870161106f565b9150509250925092565b60008083601f84011261110d57600080fd5b5081356001600160401b0381111561112457600080fd5b60208301915083602082850101111561113c57600080fd5b9250929050565b80356003811061115257600080fd5b919050565b60008083601f84011261116957600080fd5b5081356001600160401b0381111561118057600080fd5b6020830191508360208260051b850101111561113c57600080fd5b80356001600160401b038116811461115257600080fd5b803563ffffffff8116811461115257600080fd5b600080600080600080600080600080600060e08c8e0312156111e757600080fd5b6001600160401b03808d3511156111fd57600080fd5b61120a8e8e358f016110fb565b909c509a5061121b60208e01611143565b99508060408e0135111561122e57600080fd5b61123e8e60408f01358f016110fb565b909950975060608d013581101561125457600080fd5b6112648e60608f01358f01611157565b909750955060808d013581101561127a57600080fd5b5061128b8d60808e01358e01611157565b909450925061129c60a08d0161119b565b91506112aa60c08d016111b2565b90509295989b509295989b9093969950565b6000815180845260005b818110156112e2576020818501810151868301820152016112c6565b506000602082860101526020601f19601f83011685010191505092915050565b602081526000610da960208301846112bc565b60006020828403121561132757600080fd5b81356001600160a01b0381168114610da957600080fd5b634e487b7160e01b600052602160045260246000fd5b60006001600160401b0382111561136d5761136d610fd2565b5060051b60200190565b600061138a61138584611354565b610fe8565b80848252602080830192508560051b8501368111156113a857600080fd5b855b818110156113f75780356001600160401b038111156113c95760008081fd5b870136601f8201126113db5760008081fd5b6113e9368235868401611018565b8652509382019382016113aa565b50919695505050505050565b600061141161138584611354565b80848252602080830192508560051b85013681111561142f57600080fd5b855b818110156113f75780356001600160401b038111156114505760008081fd5b61145c36828a0161106f565b865250938201938201611431565b634e487b7160e01b600052603260045260246000fd5b6000808335601e1984360301811261149757600080fd5b8301803591506001600160401b038211156114b157600080fd5b60200191503681900382131561113c57600080fd5b80356020831015610c6957600019602084900360031b1b1692915050565b600181811c908216806114f857607f821691505b60208210810361151857634e487b7160e01b600052602260045260246000fd5b50919050565b601f82111561019057600081815260208120601f850160051c810160208610156115455750805b601f850160051c820191505b8181101561156457828155600101611551565b505050505050565b81516001600160401b0381111561158557611585610fd2565b6115998161159384546114e4565b8461151e565b602080601f8311600181146115ce57600084156115b65750858301515b600019600386901b1c1916600185901b178555611564565b600085815260208120601f198616915b828110156115fd578886015182559484019460019091019084016115de565b508582101561161b5787850151600019600388901b60f8161c191681555b5050505050600190811b01905550565b805160208083015191908110156115185760001960209190910360031b1b16919050565b634e487b7160e01b600052601160045260246000fd5b6000600182016116775761167761164f565b5060010190565b6001600160401b038616815260a0602082015260006116a060a08301876112bc565b61ffff9590951660408301525063ffffffff92909216606083015260809091015292915050565b6000602082840312156116d957600080fd5b5051919050565b80820180821115610c6957610c6961164f565b81810381811115610c6957610c6961164f565b60008261172357634e487b7160e01b600052601260045260246000fd5b500690565b8082028115828204841417610c6957610c6961164f565b600181815b8085111561177a5781600019048211156117605761176061164f565b8085161561176d57918102915b93841c9390800290611744565b509250929050565b60008261179157506001610c69565b8161179e57506000610c69565b81600181146117b457600281146117be576117da565b6001915050610c69565b60ff8411156117cf576117cf61164f565b50506001821b610c69565b5060208310610133831016604e8410600b84101617156117fd575081810a610c69565b611807838361173f565b806000190482111561181b5761181b61164f565b029392505050565b6000610da9838361178256fea2646970667358221220f575b33845250578e5383641dfbba2168f8efe1e2a6f1bc90e2c94d9e0a6daf464736f6c63430008140033",
  "linkReferences": {},
  "deployedLinkReferences": {}
}