{
  "_format": "hh-sol-artifact-1",
  "contractName": "Token",
  "sourceName": "contracts/k3ys/Token.sol",
  "abi": [
    {
      "inputs": [],
      "stateMutability": "nonpayable",
      "type": "constructor"
    },
    {
      "inputs": [
        {
          "internalType": "address",
          "name": "to",
          "type": "address"
        },
        {
          "internalType": "address",
          "name": "verfier",
          "type": "address"
        },
        {
          "internalType": "bytes32[]",
          "name": "pars",
          "type": "bytes32[]"
        }
      ],
      "name": "ConditionNotMet",
      "type": "error"
    },
    {
      "inputs": [
        {
          "internalType": "address",
          "name": "sender",
          "type": "address"
        },
        {
          "internalType": "uint256",
          "name": "tokenId",
          "type": "uint256"
        },
        {
          "internalType": "address",
          "name": "owner",
          "type": "address"
        }
      ],
      "name": "ERC721IncorrectOwner",
      "type": "error"
    },
    {
      "inputs": [
        {
          "internalType": "address",
          "name": "operator",
          "type": "address"
        },
        {
          "internalType": "uint256",
          "name": "tokenId",
          "type": "uint256"
        }
      ],
      "name": "ERC721InsufficientApproval",
      "type": "error"
    },
    {
      "inputs": [
        {
          "internalType": "address",
          "name": "approver",
          "type": "address"
        }
      ],
      "name": "ERC721InvalidApprover",
      "type": "error"
    },
    {
      "inputs": [
        {
          "internalType": "address",
          "name": "operator",
          "type": "address"
        }
      ],
      "name": "ERC721InvalidOperator",
      "type": "error"
    },
    {
      "inputs": [
        {
          "internalType": "address",
          "name": "owner",
          "type": "address"
        }
      ],
      "name": "ERC721InvalidOwner",
      "type": "error"
    },
    {
      "inputs": [
        {
          "internalType": "address",
          "name": "receiver",
          "type": "address"
        }
      ],
      "name": "ERC721InvalidReceiver",
      "type": "error"
    },
    {
      "inputs": [
        {
          "internalType": "address",
          "name": "sender",
          "type": "address"
        }
      ],
      "name": "ERC721InvalidSender",
      "type": "error"
    },
    {
      "inputs": [
        {
          "internalType": "uint256",
          "name": "tokenId",
          "type": "uint256"
        }
      ],
      "name": "ERC721NonexistentToken",
      "type": "error"
    },
    {
      "inputs": [],
      "name": "InvalidInitialization",
      "type": "error"
    },
    {
      "inputs": [],
      "name": "NotInitializing",
      "type": "error"
    },
    {
      "inputs": [],
      "name": "OnlyOracle",
      "type": "error"
    },
    {
      "inputs": [
        {
          "internalType": "address",
          "name": "owner",
          "type": "address"
        }
      ],
      "name": "OwnableInvalidOwner",
      "type": "error"
    },
    {
      "inputs": [
        {
          "internalType": "address",
          "name": "account",
          "type": "address"
        }
      ],
      "name": "OwnableUnauthorizedAccount",
      "type": "error"
    },
    {
      "anonymous": false,
      "inputs": [
        {
          "indexed": true,
          "internalType": "address",
          "name": "owner",
          "type": "address"
        },
        {
          "indexed": true,
          "internalType": "address",
          "name": "approved",
          "type": "address"
        },
        {
          "indexed": true,
          "internalType": "uint256",
          "name": "tokenId",
          "type": "uint256"
        }
      ],
      "name": "Approval",
      "type": "event"
    },
    {
      "anonymous": false,
      "inputs": [
        {
          "indexed": true,
          "internalType": "address",
          "name": "owner",
          "type": "address"
        },
        {
          "indexed": true,
          "internalType": "address",
          "name": "operator",
          "type": "address"
        },
        {
          "indexed": false,
          "internalType": "bool",
          "name": "approved",
          "type": "bool"
        }
      ],
      "name": "ApprovalForAll",
      "type": "event"
    },
    {
      "anonymous": false,
      "inputs": [
        {
          "indexed": false,
          "internalType": "uint256",
          "name": "_fromTokenId",
          "type": "uint256"
        },
        {
          "indexed": false,
          "internalType": "uint256",
          "name": "_toTokenId",
          "type": "uint256"
        }
      ],
      "name": "BatchMetadataUpdate",
      "type": "event"
    },
    {
      "anonymous": false,
      "inputs": [
        {
          "indexed": false,
          "internalType": "uint64",
          "name": "version",
          "type": "uint64"
        }
      ],
      "name": "Initialized",
      "type": "event"
    },
    {
      "anonymous": false,
      "inputs": [
        {
          "indexed": false,
          "internalType": "uint256",
          "name": "_tokenId",
          "type": "uint256"
        }
      ],
      "name": "MetadataUpdate",
      "type": "event"
    },
    {
      "anonymous": false,
      "inputs": [
        {
          "indexed": true,
          "internalType": "address",
          "name": "previousOwner",
          "type": "address"
        },
        {
          "indexed": true,
          "internalType": "address",
          "name": "newOwner",
          "type": "address"
        }
      ],
      "name": "OwnershipTransferred",
      "type": "event"
    },
    {
      "anonymous": false,
      "inputs": [
        {
          "indexed": true,
          "internalType": "address",
          "name": "from",
          "type": "address"
        },
        {
          "indexed": true,
          "internalType": "address",
          "name": "to",
          "type": "address"
        },
        {
          "indexed": true,
          "internalType": "uint256",
          "name": "tokenId",
          "type": "uint256"
        }
      ],
      "name": "Transfer",
      "type": "event"
    },
    {
      "inputs": [
        {
          "internalType": "address",
          "name": "to",
          "type": "address"
        },
        {
          "internalType": "uint256",
          "name": "tokenId",
          "type": "uint256"
        }
      ],
      "name": "approve",
      "outputs": [],
      "stateMutability": "nonpayable",
      "type": "function"
    },
    {
      "inputs": [
        {
          "internalType": "address",
          "name": "owner",
          "type": "address"
        }
      ],
      "name": "balanceOf",
      "outputs": [
        {
          "internalType": "uint256",
          "name": "",
          "type": "uint256"
        }
      ],
      "stateMutability": "view",
      "type": "function"
    },
    {
      "inputs": [
        {
          "internalType": "uint256",
          "name": "tokenId",
          "type": "uint256"
        }
      ],
      "name": "getApproved",
      "outputs": [
        {
          "internalType": "address",
          "name": "",
          "type": "address"
        }
      ],
      "stateMutability": "view",
      "type": "function"
    },
    {
      "inputs": [
        {
          "internalType": "string",
          "name": "__name",
          "type": "string"
        },
        {
          "internalType": "string",
          "name": "__symbol",
          "type": "string"
        },
        {
          "internalType": "address",
          "name": "owner",
          "type": "address"
        },
        {
          "internalType": "address[]",
          "name": "_verifiers",
          "type": "address[]"
        },
        {
          "internalType": "bytes32[][]",
          "name": "_parsArray",
          "type": "bytes32[][]"
        },
        {
          "internalType": "address",
          "name": "_oracle",
          "type": "address"
        }
      ],
      "name": "init",
      "outputs": [],
      "stateMutability": "nonpayable",
      "type": "function"
    },
    {
      "inputs": [
        {
          "internalType": "address",
          "name": "owner",
          "type": "address"
        },
        {
          "internalType": "address",
          "name": "operator",
          "type": "address"
        }
      ],
      "name": "isApprovedForAll",
      "outputs": [
        {
          "internalType": "bool",
          "name": "",
          "type": "bool"
        }
      ],
      "stateMutability": "view",
      "type": "function"
    },
    {
      "inputs": [
        {
          "internalType": "address",
          "name": "to",
          "type": "address"
        }
      ],
      "name": "mintConditions",
      "outputs": [],
      "stateMutability": "nonpayable",
      "type": "function"
    },
    {
      "inputs": [
        {
          "internalType": "address",
          "name": "to",
          "type": "address"
        }
      ],
      "name": "mintOracle",
      "outputs": [],
      "stateMutability": "nonpayable",
      "type": "function"
    },
    {
      "inputs": [],
      "name": "name",
      "outputs": [
        {
          "internalType": "string",
          "name": "",
          "type": "string"
        }
      ],
      "stateMutability": "view",
      "type": "function"
    },
    {
      "inputs": [],
      "name": "owner",
      "outputs": [
        {
          "internalType": "address",
          "name": "",
          "type": "address"
        }
      ],
      "stateMutability": "view",
      "type": "function"
    },
    {
      "inputs": [
        {
          "internalType": "uint256",
          "name": "tokenId",
          "type": "uint256"
        }
      ],
      "name": "ownerOf",
      "outputs": [
        {
          "internalType": "address",
          "name": "",
          "type": "address"
        }
      ],
      "stateMutability": "view",
      "type": "function"
    },
    {
      "inputs": [],
      "name": "renounceOwnership",
      "outputs": [],
      "stateMutability": "nonpayable",
      "type": "function"
    },
    {
      "inputs": [
        {
          "internalType": "address",
          "name": "from",
          "type": "address"
        },
        {
          "internalType": "address",
          "name": "to",
          "type": "address"
        },
        {
          "internalType": "uint256",
          "name": "tokenId",
          "type": "uint256"
        }
      ],
      "name": "safeTransferFrom",
      "outputs": [],
      "stateMutability": "nonpayable",
      "type": "function"
    },
    {
      "inputs": [
        {
          "internalType": "address",
          "name": "from",
          "type": "address"
        },
        {
          "internalType": "address",
          "name": "to",
          "type": "address"
        },
        {
          "internalType": "uint256",
          "name": "tokenId",
          "type": "uint256"
        },
        {
          "internalType": "bytes",
          "name": "data",
          "type": "bytes"
        }
      ],
      "name": "safeTransferFrom",
      "outputs": [],
      "stateMutability": "nonpayable",
      "type": "function"
    },
    {
      "inputs": [
        {
          "internalType": "address",
          "name": "operator",
          "type": "address"
        },
        {
          "internalType": "bool",
          "name": "approved",
          "type": "bool"
        }
      ],
      "name": "setApprovalForAll",
      "outputs": [],
      "stateMutability": "nonpayable",
      "type": "function"
    },
    {
      "inputs": [
        {
          "internalType": "bytes4",
          "name": "interfaceId",
          "type": "bytes4"
        }
      ],
      "name": "supportsInterface",
      "outputs": [
        {
          "internalType": "bool",
          "name": "",
          "type": "bool"
        }
      ],
      "stateMutability": "view",
      "type": "function"
    },
    {
      "inputs": [],
      "name": "symbol",
      "outputs": [
        {
          "internalType": "string",
          "name": "",
          "type": "string"
        }
      ],
      "stateMutability": "view",
      "type": "function"
    },
    {
      "inputs": [
        {
          "internalType": "uint256",
          "name": "tokenId",
          "type": "uint256"
        }
      ],
      "name": "tokenURI",
      "outputs": [
        {
          "internalType": "string",
          "name": "",
          "type": "string"
        }
      ],
      "stateMutability": "view",
      "type": "function"
    },
    {
      "inputs": [
        {
          "internalType": "address",
          "name": "from",
          "type": "address"
        },
        {
          "internalType": "address",
          "name": "to",
          "type": "address"
        },
        {
          "internalType": "uint256",
          "name": "tokenId",
          "type": "uint256"
        }
      ],
      "name": "transferFrom",
      "outputs": [],
      "stateMutability": "nonpayable",
      "type": "function"
    },
    {
      "inputs": [
        {
          "internalType": "address",
          "name": "newOwner",
          "type": "address"
        }
      ],
      "name": "transferOwnership",
      "outputs": [],
      "stateMutability": "nonpayable",
      "type": "function"
    }
  ],
  "bytecode": "0x60806040523480156200001157600080fd5b5060408051602080820183526000808352835191820190935282815233926200003b83826200018a565b5060016200004a82826200018a565b5050506001600160a01b0381166200007c57604051631e4fbdf760e01b81526000600482015260240160405180910390fd5b620000878162000093565b50600060085562000256565b600780546001600160a01b038381166001600160a01b0319831681179093556040519116919082907f8be0079c531659141344cd1fd0a4f28419497f9722a3daafe3b4186f6b6457e090600090a35050565b634e487b7160e01b600052604160045260246000fd5b600181811c908216806200011057607f821691505b6020821081036200013157634e487b7160e01b600052602260045260246000fd5b50919050565b601f8211156200018557600081815260208120601f850160051c81016020861015620001605750805b601f850160051c820191505b8181101562000181578281556001016200016c565b5050505b505050565b81516001600160401b03811115620001a657620001a6620000e5565b620001be81620001b78454620000fb565b8462000137565b602080601f831160018114620001f65760008415620001dd5750858301515b600019600386901b1c1916600185901b17855562000181565b600085815260208120601f198616915b82811015620002275788860151825594840194600190910190840162000206565b5085821015620002465787850151600019600388901b60f8161c191681555b5050505050600190811b01905550565b611b7c80620002666000396000f3fe608060405234801561001057600080fd5b50600436106101215760003560e01c8063715018a6116100ad578063a22cb46511610071578063a22cb46514610257578063b88d4fde1461026a578063c87b56dd1461027d578063e985e9c514610290578063f2fde38b146102a357600080fd5b8063715018a61461021057806387ec07d9146102185780638856a42b1461022b5780638da5cb5b1461023e57806395d89b411461024f57600080fd5b806323b872dd116100f457806323b872dd146101a357806342842e0e146101b65780636352211e146101c95780636381e62f146101dc57806370a08231146101ef57600080fd5b806301ffc9a71461012657806306fdde031461014e578063081812fc14610163578063095ea7b31461018e575b600080fd5b610139610134366004611333565b6102b6565b60405190151581526020015b60405180910390f35b6101566102e1565b60405161014591906113a0565b6101766101713660046113b3565b610373565b6040516001600160a01b039091168152602001610145565b6101a161019c3660046113e8565b61039c565b005b6101a16101b1366004611412565b6103ab565b6101a16101c4366004611412565b61043b565b6101766101d73660046113b3565b61045b565b6101a16101ea366004611684565b610466565b6102026101fd366004611751565b6106cc565b604051908152602001610145565b6101a1610714565b6101a1610226366004611751565b610728565b6101a1610239366004611751565b6108af565b6007546001600160a01b0316610176565b6101566108f9565b6101a161026536600461177a565b610908565b6101a16102783660046117b1565b610913565b61015661028b3660046113b3565b61092a565b61013961029e36600461182d565b610a3b565b6101a16102b1366004611751565b610a69565b60006001600160e01b03198216632483248360e11b14806102db57506102db82610aa4565b92915050565b6060600080546102f090611860565b80601f016020809104026020016040519081016040528092919081815260200182805461031c90611860565b80156103695780601f1061033e57610100808354040283529160200191610369565b820191906000526020600020905b81548152906001019060200180831161034c57829003601f168201915b5050505050905090565b600061037e82610af4565b506000828152600460205260409020546001600160a01b03166102db565b6103a7828233610b2d565b5050565b6001600160a01b0382166103da57604051633250574960e11b8152600060048201526024015b60405180910390fd5b60006103e7838333610b3a565b9050836001600160a01b0316816001600160a01b031614610435576040516364283d7b60e01b81526001600160a01b03808616600483015260248201849052821660448201526064016103d1565b50505050565b61045683838360405180602001604052806000815250610913565b505050565b60006102db82610af4565b7ff0c57e16840df040f15088dc2f81fe391c3923bec73e23a9662efc9c229c6a008054600160401b810460ff16159067ffffffffffffffff166000811580156104ac5750825b905060008267ffffffffffffffff1660011480156104c95750303b155b9050811580156104d7575080155b156104f55760405163f92ee8a960e01b815260040160405180910390fd5b845467ffffffffffffffff19166001178555831561051f57845460ff60401b1916600160401b1785555b600a80546001600160a01b0319166001600160a01b03881617905560006105468c826118e8565b5060016105538b826118e8565b5061055d89610c33565b60005b88518160ff16101561067857604080518082019091526000815260606020820152898260ff1681518110610596576105966119a8565b60209081029190910101516001600160a01b031681528851899060ff84169081106105c3576105c36119a8565b6020908102919091018101518282019081526009805460018101825560009190915283517f6e1540171b6c0c960b71a7020d9f60077f6af931a8bbf590da0223dacf75c7af600290920291820180546001600160a01b0319166001600160a01b03909216919091178155915180518594610661937f6e1540171b6c0c960b71a7020d9f60077f6af931a8bbf590da0223dacf75c7b0019201906112bd565b505050508080610670906119d4565b915050610560565b5083156106bf57845460ff60401b19168555604051600181527fc7f505b2f371ae2175ee4913f4499e1f2633a7b5936321eed1cdaeb6115181d29060200160405180910390a15b5050505050505050505050565b60006001600160a01b0382166106f8576040516322718ad960e21b8152600060048201526024016103d1565b506001600160a01b031660009081526003602052604090205490565b61071c610c85565b6107266000610c33565b565b60005b60095460ff8216101561088c57600060098260ff1681548110610750576107506119a8565b6000918252602091829020604080518082018252600290930290910180546001600160a01b031683526001810180548351818702810187019094528084529394919385830193928301828280156107c657602002820191906000526020600020905b8154815260200190600101908083116107b2575b5050505050815250509050600081600001516001600160a01b031663b76a0df48584602001516040518363ffffffff1660e01b8152600401610809929190611a2e565b6020604051808303816000875af1158015610828573d6000803e3d6000fd5b505050506040513d601f19601f8201168201806040525081019061084c9190611a52565b90508061087757815160208301516040516336492c7b60e01b81526103d19287929091600401611a6f565b50508080610884906119d4565b91505061072b565b50600880546108ac9183919060006108a383611aa4565b91905055610cb2565b50565b600a546001600160a01b0316336001600160a01b0316146108e3576040516380fee10560e01b815260040160405180910390fd5b600880546108ac9183919060006108a383611aa4565b6060600180546102f090611860565b6103a7338383610ccc565b61091e8484846103ab565b61043584848484610d6b565b606061093582610af4565b506000828152600660205260408120805461094f90611860565b80601f016020809104026020016040519081016040528092919081815260200182805461097b90611860565b80156109c85780601f1061099d576101008083540402835291602001916109c8565b820191906000526020600020905b8154815290600101906020018083116109ab57829003601f168201915b5050505050905060006109e660408051602081019091526000815290565b905080516000036109f8575092915050565b815115610a2a578082604051602001610a12929190611abd565b60405160208183030381529060405292505050919050565b610a3384610e94565b949350505050565b6001600160a01b03918216600090815260056020908152604080832093909416825291909152205460ff1690565b610a71610c85565b6001600160a01b038116610a9b57604051631e4fbdf760e01b8152600060048201526024016103d1565b6108ac81610c33565b60006001600160e01b031982166380ac58cd60e01b1480610ad557506001600160e01b03198216635b5e139f60e01b145b806102db57506301ffc9a760e01b6001600160e01b03198316146102db565b6000818152600260205260408120546001600160a01b0316806102db57604051637e27328960e01b8152600481018490526024016103d1565b6104568383836001610f09565b6000828152600260205260408120546001600160a01b0390811690831615610b6757610b6781848661100f565b6001600160a01b03811615610ba557610b84600085600080610f09565b6001600160a01b038116600090815260036020526040902080546000190190555b6001600160a01b03851615610bd4576001600160a01b0385166000908152600360205260409020805460010190555b60008481526002602052604080822080546001600160a01b0319166001600160a01b0389811691821790925591518793918516917fddf252ad1be2c89b69c2b068fc378daa952ba7f163c4a11628f55a4df523b3ef91a4949350505050565b600780546001600160a01b038381166001600160a01b0319831681179093556040519116919082907f8be0079c531659141344cd1fd0a4f28419497f9722a3daafe3b4186f6b6457e090600090a35050565b6007546001600160a01b031633146107265760405163118cdaa760e01b81523360048201526024016103d1565b6103a7828260405180602001604052806000815250611073565b6001600160a01b038216610cfe57604051630b61174360e31b81526001600160a01b03831660048201526024016103d1565b6001600160a01b03838116600081815260056020908152604080832094871680845294825291829020805460ff191686151590811790915591519182527f17307eab39ab6107e8899845ad3d59bd9653f200f220920489ca2b5937696c31910160405180910390a3505050565b6001600160a01b0383163b1561043557604051630a85bd0160e11b81526001600160a01b0384169063150b7a0290610dad903390889087908790600401611aec565b6020604051808303816000875af1925050508015610de8575060408051601f3d908101601f19168201909252610de591810190611b29565b60015b610e51573d808015610e16576040519150601f19603f3d011682016040523d82523d6000602084013e610e1b565b606091505b508051600003610e4957604051633250574960e11b81526001600160a01b03851660048201526024016103d1565b805181602001fd5b6001600160e01b03198116630a85bd0160e11b14610e8d57604051633250574960e11b81526001600160a01b03851660048201526024016103d1565b5050505050565b6060610e9f82610af4565b506000610eb760408051602081019091526000815290565b90506000815111610ed75760405180602001604052806000815250610f02565b80610ee18461108a565b604051602001610ef2929190611abd565b6040516020818303038152906040525b9392505050565b8080610f1d57506001600160a01b03821615155b15610fdf576000610f2d84610af4565b90506001600160a01b03831615801590610f595750826001600160a01b0316816001600160a01b031614155b8015610f6c5750610f6a8184610a3b565b155b15610f955760405163a9fbf51f60e01b81526001600160a01b03841660048201526024016103d1565b8115610fdd5783856001600160a01b0316826001600160a01b03167f8c5be1e5ebec7d5bd14f71427d1e84f3dd0314c0f7b2291e5b200ac8c7c3b92560405160405180910390a45b505b5050600090815260046020526040902080546001600160a01b0319166001600160a01b0392909216919091179055565b61101a83838361111d565b610456576001600160a01b03831661104857604051637e27328960e01b8152600481018290526024016103d1565b60405163177e802f60e01b81526001600160a01b0383166004820152602481018290526044016103d1565b61107d8383611180565b6104566000848484610d6b565b60606000611097836111e5565b600101905060008167ffffffffffffffff8111156110b7576110b761144e565b6040519080825280601f01601f1916602001820160405280156110e1576020820181803683370190505b5090508181016020015b600019016f181899199a1a9b1b9c1cb0b131b232b360811b600a86061a8153600a85049450846110eb57509392505050565b60006001600160a01b03831615801590610a335750826001600160a01b0316846001600160a01b0316148061115757506111578484610a3b565b80610a335750506000908152600460205260409020546001600160a01b03908116911614919050565b6001600160a01b0382166111aa57604051633250574960e11b8152600060048201526024016103d1565b60006111b883836000610b3a565b90506001600160a01b03811615610456576040516339e3563760e11b8152600060048201526024016103d1565b60008072184f03e93ff9f4daa797ed6e38ed64bf6a1f0160401b83106112245772184f03e93ff9f4daa797ed6e38ed64bf6a1f0160401b830492506040015b6d04ee2d6d415b85acef81000000008310611250576d04ee2d6d415b85acef8100000000830492506020015b662386f26fc10000831061126e57662386f26fc10000830492506010015b6305f5e1008310611286576305f5e100830492506008015b612710831061129a57612710830492506004015b606483106112ac576064830492506002015b600a83106102db5760010192915050565b8280548282559060005260206000209081019282156112f8579160200282015b828111156112f85782518255916020019190600101906112dd565b50611304929150611308565b5090565b5b808211156113045760008155600101611309565b6001600160e01b0319811681146108ac57600080fd5b60006020828403121561134557600080fd5b8135610f028161131d565b60005b8381101561136b578181015183820152602001611353565b50506000910152565b6000815180845261138c816020860160208601611350565b601f01601f19169290920160200192915050565b602081526000610f026020830184611374565b6000602082840312156113c557600080fd5b5035919050565b80356001600160a01b03811681146113e357600080fd5b919050565b600080604083850312156113fb57600080fd5b611404836113cc565b946020939093013593505050565b60008060006060848603121561142757600080fd5b611430846113cc565b925061143e602085016113cc565b9150604084013590509250925092565b634e487b7160e01b600052604160045260246000fd5b604051601f8201601f1916810167ffffffffffffffff8111828210171561148d5761148d61144e565b604052919050565b600067ffffffffffffffff8311156114af576114af61144e565b6114c2601f8401601f1916602001611464565b90508281528383830111156114d657600080fd5b828260208301376000602084830101529392505050565b600082601f8301126114fe57600080fd5b610f0283833560208501611495565b600067ffffffffffffffff8211156115275761152761144e565b5060051b60200190565b600082601f83011261154257600080fd5b813560206115576115528361150d565b611464565b82815260059290921b8401810191818101908684111561157657600080fd5b8286015b848110156115985761158b816113cc565b835291830191830161157a565b509695505050505050565b600082601f8301126115b457600080fd5b813560206115c46115528361150d565b828152600592831b85018201928282019190878511156115e357600080fd5b8387015b8581101561167757803567ffffffffffffffff8111156116075760008081fd5b8801603f81018a136116195760008081fd5b85810135604061162b6115528361150d565b82815291851b8301810191888101908d8411156116485760008081fd5b938201935b838510156116665784358252938901939089019061164d565b8852505050938501935084016115e7565b5090979650505050505050565b60008060008060008060c0878903121561169d57600080fd5b863567ffffffffffffffff808211156116b557600080fd5b6116c18a838b016114ed565b975060208901359150808211156116d757600080fd5b6116e38a838b016114ed565b96506116f160408a016113cc565b9550606089013591508082111561170757600080fd5b6117138a838b01611531565b9450608089013591508082111561172957600080fd5b5061173689828a016115a3565b92505061174560a088016113cc565b90509295509295509295565b60006020828403121561176357600080fd5b610f02826113cc565b80151581146108ac57600080fd5b6000806040838503121561178d57600080fd5b611796836113cc565b915060208301356117a68161176c565b809150509250929050565b600080600080608085870312156117c757600080fd5b6117d0856113cc565b93506117de602086016113cc565b925060408501359150606085013567ffffffffffffffff81111561180157600080fd5b8501601f8101871361181257600080fd5b61182187823560208401611495565b91505092959194509250565b6000806040838503121561184057600080fd5b611849836113cc565b9150611857602084016113cc565b90509250929050565b600181811c9082168061187457607f821691505b60208210810361189457634e487b7160e01b600052602260045260246000fd5b50919050565b601f82111561045657600081815260208120601f850160051c810160208610156118c15750805b601f850160051c820191505b818110156118e0578281556001016118cd565b505050505050565b815167ffffffffffffffff8111156119025761190261144e565b611916816119108454611860565b8461189a565b602080601f83116001811461194b57600084156119335750858301515b600019600386901b1c1916600185901b1785556118e0565b600085815260208120601f198616915b8281101561197a5788860151825594840194600190910190840161195b565b50858210156119985787850151600019600388901b60f8161c191681555b5050505050600190811b01905550565b634e487b7160e01b600052603260045260246000fd5b634e487b7160e01b600052601160045260246000fd5b600060ff821660ff81036119ea576119ea6119be565b60010192915050565b600081518084526020808501945080840160005b83811015611a2357815187529582019590820190600101611a07565b509495945050505050565b6001600160a01b0383168152604060208201819052600090610a33908301846119f3565b600060208284031215611a6457600080fd5b8151610f028161176c565b6001600160a01b03848116825283166020820152606060408201819052600090611a9b908301846119f3565b95945050505050565b600060018201611ab657611ab66119be565b5060010190565b60008351611acf818460208801611350565b835190830190611ae3818360208801611350565b01949350505050565b6001600160a01b0385811682528416602082015260408101839052608060608201819052600090611b1f90830184611374565b9695505050505050565b600060208284031215611b3b57600080fd5b8151610f028161131d56fea264697066735822122073c7bd3a1094acd54a246b0d79ac4807d03fd82d6dc6d2f86857c9307ddd976e64736f6c63430008140033",
  "linkReferences": {},
  "deployedLinkReferences": {}
}